{
  "address": "0x7F589cd6AcbB6f45BFAED47721399c5114599938",
  "abi": [
    {
      "inputs": [],
      "stateMutability": "nonpayable",
      "type": "constructor"
    },
    {
      "inputs": [
        {
          "internalType": "uint256",
          "name": "requestId",
          "type": "uint256"
        }
      ],
      "name": "ConfidentialFungibleTokenInvalidGatewayRequest",
      "type": "error"
    },
    {
      "inputs": [
        {
          "internalType": "address",
          "name": "receiver",
          "type": "address"
        }
      ],
      "name": "ConfidentialFungibleTokenInvalidReceiver",
      "type": "error"
    },
    {
      "inputs": [
        {
          "internalType": "address",
          "name": "sender",
          "type": "address"
        }
      ],
      "name": "ConfidentialFungibleTokenInvalidSender",
      "type": "error"
    },
    {
      "inputs": [
        {
          "internalType": "address",
          "name": "caller",
          "type": "address"
        }
      ],
      "name": "ConfidentialFungibleTokenUnauthorizedCaller",
      "type": "error"
    },
    {
      "inputs": [
        {
          "internalType": "address",
          "name": "holder",
          "type": "address"
        },
        {
          "internalType": "address",
          "name": "spender",
          "type": "address"
        }
      ],
      "name": "ConfidentialFungibleTokenUnauthorizedSpender",
      "type": "error"
    },
    {
      "inputs": [
        {
          "internalType": "euint64",
          "name": "amount",
          "type": "bytes32"
        },
        {
          "internalType": "address",
          "name": "user",
          "type": "address"
        }
      ],
      "name": "ConfidentialFungibleTokenUnauthorizedUseOfEncryptedAmount",
      "type": "error"
    },
    {
      "inputs": [
        {
          "internalType": "address",
          "name": "holder",
          "type": "address"
        }
      ],
      "name": "ConfidentialFungibleTokenZeroBalance",
      "type": "error"
    },
    {
      "inputs": [],
      "name": "HandlesAlreadySavedForRequestID",
      "type": "error"
    },
    {
      "inputs": [],
      "name": "InvalidKMSSignatures",
      "type": "error"
    },
    {
      "inputs": [],
      "name": "NoHandleFoundForRequestID",
      "type": "error"
    },
    {
      "inputs": [
        {
          "internalType": "address",
          "name": "owner",
          "type": "address"
        }
      ],
      "name": "OwnableInvalidOwner",
      "type": "error"
    },
    {
      "inputs": [
        {
          "internalType": "address",
          "name": "account",
          "type": "address"
        }
      ],
      "name": "OwnableUnauthorizedAccount",
      "type": "error"
    },
    {
      "inputs": [],
      "name": "UnsupportedHandleType",
      "type": "error"
    },
    {
      "anonymous": false,
      "inputs": [
        {
          "indexed": true,
          "internalType": "euint64",
          "name": "encryptedAmount",
          "type": "bytes32"
        },
        {
          "indexed": false,
          "internalType": "uint64",
          "name": "amount",
          "type": "uint64"
        }
      ],
      "name": "AmountDisclosed",
      "type": "event"
    },
    {
      "anonymous": false,
      "inputs": [
        {
          "indexed": true,
          "internalType": "address",
          "name": "from",
          "type": "address"
        },
        {
          "indexed": true,
          "internalType": "address",
          "name": "to",
          "type": "address"
        },
        {
          "indexed": true,
          "internalType": "euint64",
          "name": "amount",
          "type": "bytes32"
        }
      ],
      "name": "ConfidentialTransfer",
      "type": "event"
    },
    {
      "anonymous": false,
      "inputs": [
        {
          "indexed": true,
          "internalType": "uint256",
          "name": "requestID",
          "type": "uint256"
        }
      ],
      "name": "DecryptionFulfilled",
      "type": "event"
    },
    {
      "anonymous": false,
      "inputs": [
        {
          "indexed": true,
          "internalType": "address",
          "name": "user",
          "type": "address"
        },
        {
          "indexed": false,
          "internalType": "uint256",
          "name": "amount",
          "type": "uint256"
        }
      ],
      "name": "Deposit",
      "type": "event"
    },
    {
      "anonymous": false,
      "inputs": [
        {
          "indexed": true,
          "internalType": "address",
          "name": "holder",
          "type": "address"
        },
        {
          "indexed": true,
          "internalType": "address",
          "name": "operator",
          "type": "address"
        },
        {
          "indexed": false,
          "internalType": "uint48",
          "name": "until",
          "type": "uint48"
        }
      ],
      "name": "OperatorSet",
      "type": "event"
    },
    {
      "anonymous": false,
      "inputs": [
        {
          "indexed": true,
          "internalType": "address",
          "name": "previousOwner",
          "type": "address"
        },
        {
          "indexed": true,
          "internalType": "address",
          "name": "newOwner",
          "type": "address"
        }
      ],
      "name": "OwnershipTransferred",
      "type": "event"
    },
    {
      "anonymous": false,
      "inputs": [
        {
          "indexed": true,
          "internalType": "address",
          "name": "user",
          "type": "address"
        },
        {
          "indexed": false,
          "internalType": "uint256",
          "name": "amount",
          "type": "uint256"
        }
      ],
      "name": "Unwrap",
      "type": "event"
    },
    {
      "anonymous": false,
      "inputs": [
        {
          "indexed": true,
          "internalType": "address",
          "name": "user",
          "type": "address"
        },
        {
          "indexed": false,
          "internalType": "uint256",
          "name": "amount",
          "type": "uint256"
        }
      ],
      "name": "Withdrawal",
      "type": "event"
    },
    {
      "anonymous": false,
      "inputs": [
        {
          "indexed": true,
          "internalType": "address",
          "name": "user",
          "type": "address"
        },
        {
          "indexed": false,
          "internalType": "uint256",
          "name": "amount",
          "type": "uint256"
        }
      ],
      "name": "Wrap",
      "type": "event"
    },
    {
      "inputs": [
        {
          "internalType": "address",
          "name": "account",
          "type": "address"
        }
      ],
      "name": "confidentialBalanceOf",
      "outputs": [
        {
          "internalType": "euint64",
          "name": "",
          "type": "bytes32"
        }
      ],
      "stateMutability": "view",
      "type": "function"
    },
    {
      "inputs": [],
      "name": "confidentialTotalSupply",
      "outputs": [
        {
          "internalType": "euint64",
          "name": "",
          "type": "bytes32"
        }
      ],
      "stateMutability": "view",
      "type": "function"
    },
    {
      "inputs": [
        {
          "internalType": "address",
          "name": "to",
          "type": "address"
        },
        {
          "internalType": "externalEuint64",
          "name": "encryptedAmount",
          "type": "bytes32"
        },
        {
          "internalType": "bytes",
          "name": "inputProof",
          "type": "bytes"
        }
      ],
      "name": "confidentialTransfer",
      "outputs": [
        {
          "internalType": "euint64",
          "name": "",
          "type": "bytes32"
        }
      ],
      "stateMutability": "nonpayable",
      "type": "function"
    },
    {
      "inputs": [
        {
          "internalType": "address",
          "name": "to",
          "type": "address"
        },
        {
          "internalType": "euint64",
          "name": "amount",
          "type": "bytes32"
        }
      ],
      "name": "confidentialTransfer",
      "outputs": [
        {
          "internalType": "euint64",
          "name": "",
          "type": "bytes32"
        }
      ],
      "stateMutability": "nonpayable",
      "type": "function"
    },
    {
      "inputs": [
        {
          "internalType": "address",
          "name": "to",
          "type": "address"
        },
        {
          "internalType": "euint64",
          "name": "amount",
          "type": "bytes32"
        },
        {
          "internalType": "bytes",
          "name": "data",
          "type": "bytes"
        }
      ],
      "name": "confidentialTransferAndCall",
      "outputs": [
        {
          "internalType": "euint64",
          "name": "transferred",
          "type": "bytes32"
        }
      ],
      "stateMutability": "nonpayable",
      "type": "function"
    },
    {
      "inputs": [
        {
          "internalType": "address",
          "name": "to",
          "type": "address"
        },
        {
          "internalType": "externalEuint64",
          "name": "encryptedAmount",
          "type": "bytes32"
        },
        {
          "internalType": "bytes",
          "name": "inputProof",
          "type": "bytes"
        },
        {
          "internalType": "bytes",
          "name": "data",
          "type": "bytes"
        }
      ],
      "name": "confidentialTransferAndCall",
      "outputs": [
        {
          "internalType": "euint64",
          "name": "transferred",
          "type": "bytes32"
        }
      ],
      "stateMutability": "nonpayable",
      "type": "function"
    },
    {
      "inputs": [
        {
          "internalType": "address",
          "name": "from",
          "type": "address"
        },
        {
          "internalType": "address",
          "name": "to",
          "type": "address"
        },
        {
          "internalType": "externalEuint64",
          "name": "encryptedAmount",
          "type": "bytes32"
        },
        {
          "internalType": "bytes",
          "name": "inputProof",
          "type": "bytes"
        }
      ],
      "name": "confidentialTransferFrom",
      "outputs": [
        {
          "internalType": "euint64",
          "name": "transferred",
          "type": "bytes32"
        }
      ],
      "stateMutability": "nonpayable",
      "type": "function"
    },
    {
      "inputs": [
        {
          "internalType": "address",
          "name": "from",
          "type": "address"
        },
        {
          "internalType": "address",
          "name": "to",
          "type": "address"
        },
        {
          "internalType": "euint64",
          "name": "amount",
          "type": "bytes32"
        }
      ],
      "name": "confidentialTransferFrom",
      "outputs": [
        {
          "internalType": "euint64",
          "name": "transferred",
          "type": "bytes32"
        }
      ],
      "stateMutability": "nonpayable",
      "type": "function"
    },
    {
      "inputs": [
        {
          "internalType": "address",
          "name": "from",
          "type": "address"
        },
        {
          "internalType": "address",
          "name": "to",
          "type": "address"
        },
        {
          "internalType": "externalEuint64",
          "name": "encryptedAmount",
          "type": "bytes32"
        },
        {
          "internalType": "bytes",
          "name": "inputProof",
          "type": "bytes"
        },
        {
          "internalType": "bytes",
          "name": "data",
          "type": "bytes"
        }
      ],
      "name": "confidentialTransferFromAndCall",
      "outputs": [
        {
          "internalType": "euint64",
          "name": "transferred",
          "type": "bytes32"
        }
      ],
      "stateMutability": "nonpayable",
      "type": "function"
    },
    {
      "inputs": [
        {
          "internalType": "address",
          "name": "from",
          "type": "address"
        },
        {
          "internalType": "address",
          "name": "to",
          "type": "address"
        },
        {
          "internalType": "euint64",
          "name": "amount",
          "type": "bytes32"
        },
        {
          "internalType": "bytes",
          "name": "data",
          "type": "bytes"
        }
      ],
      "name": "confidentialTransferFromAndCall",
      "outputs": [
        {
          "internalType": "euint64",
          "name": "transferred",
          "type": "bytes32"
        }
      ],
      "stateMutability": "nonpayable",
      "type": "function"
    },
    {
      "inputs": [],
      "name": "decimals",
      "outputs": [
        {
          "internalType": "uint8",
          "name": "",
          "type": "uint8"
        }
      ],
      "stateMutability": "view",
      "type": "function"
    },
    {
      "inputs": [
        {
          "internalType": "euint64",
          "name": "encryptedAmount",
          "type": "bytes32"
        }
      ],
      "name": "discloseEncryptedAmount",
      "outputs": [],
      "stateMutability": "nonpayable",
      "type": "function"
    },
    {
      "inputs": [],
      "name": "emergencyWithdraw",
      "outputs": [],
      "stateMutability": "nonpayable",
      "type": "function"
    },
    {
      "inputs": [
        {
          "internalType": "uint256",
          "name": "requestId",
          "type": "uint256"
        },
        {
          "internalType": "uint64",
          "name": "amount",
          "type": "uint64"
        },
        {
          "internalType": "bytes[]",
          "name": "signatures",
          "type": "bytes[]"
        }
      ],
      "name": "finalizeDiscloseEncryptedAmount",
      "outputs": [],
      "stateMutability": "nonpayable",
      "type": "function"
    },
    {
      "inputs": [
        {
          "internalType": "address",
          "name": "user",
          "type": "address"
        }
      ],
      "name": "getEncryptedBalance",
      "outputs": [
        {
          "internalType": "euint32",
          "name": "",
          "type": "bytes32"
        }
      ],
      "stateMutability": "view",
      "type": "function"
    },
    {
      "inputs": [],
      "name": "getEncryptedTotalSupply",
      "outputs": [
        {
          "internalType": "euint32",
          "name": "",
          "type": "bytes32"
        }
      ],
      "stateMutability": "view",
      "type": "function"
    },
    {
      "inputs": [
        {
          "internalType": "address",
          "name": "holder",
          "type": "address"
        },
        {
          "internalType": "address",
          "name": "spender",
          "type": "address"
        }
      ],
      "name": "isOperator",
      "outputs": [
        {
          "internalType": "bool",
          "name": "",
          "type": "bool"
        }
      ],
      "stateMutability": "view",
      "type": "function"
    },
    {
      "inputs": [],
      "name": "name",
      "outputs": [
        {
          "internalType": "string",
          "name": "",
          "type": "string"
        }
      ],
      "stateMutability": "view",
      "type": "function"
    },
    {
      "inputs": [],
      "name": "owner",
      "outputs": [
        {
          "internalType": "address",
          "name": "",
          "type": "address"
        }
      ],
      "stateMutability": "view",
      "type": "function"
    },
    {
      "inputs": [],
      "name": "renounceOwnership",
      "outputs": [],
      "stateMutability": "nonpayable",
      "type": "function"
    },
    {
      "inputs": [
        {
          "internalType": "address",
          "name": "operator",
          "type": "address"
        },
        {
          "internalType": "uint48",
          "name": "until",
          "type": "uint48"
        }
      ],
      "name": "setOperator",
      "outputs": [],
      "stateMutability": "nonpayable",
      "type": "function"
    },
    {
      "inputs": [],
      "name": "symbol",
      "outputs": [
        {
          "internalType": "string",
          "name": "",
          "type": "string"
        }
      ],
      "stateMutability": "view",
      "type": "function"
    },
    {
      "inputs": [],
      "name": "tokenURI",
      "outputs": [
        {
          "internalType": "string",
          "name": "",
          "type": "string"
        }
      ],
      "stateMutability": "view",
      "type": "function"
    },
    {
      "inputs": [
        {
          "internalType": "address",
          "name": "newOwner",
          "type": "address"
        }
      ],
      "name": "transferOwnership",
      "outputs": [],
      "stateMutability": "nonpayable",
      "type": "function"
    },
    {
      "inputs": [],
      "name": "wrap",
      "outputs": [],
      "stateMutability": "payable",
      "type": "function"
    },
    {
      "stateMutability": "payable",
      "type": "receive"
    }
  ],
  "transactionHash": "0xae52b79ad16b1967b0c2ed380aa39a295f7a7a2d5f0c12f8b20d3ff0a582bbec",
  "args": [],
  "numDeployments": 1,
  "solcInputHash": "5f4aed73b8ee757d5aa18aa3d3b93d53",
  "bytecode": "0x608060405234801561000f575f5ffd5b50336040518060400160405280601a81526020017f436f6e666964656e7469616c2057726170706564204574686572000000000000815250604051806040016040528060058152602001640c6ae8aa8960db1b815250604051806060016040528060218152602001612aa060219139600461008a8482610397565b5060056100978382610397565b5060066100a48282610397565b505050506101956100b961021660201b60201c565b80517fed8d60e34876f751cc8b014c560745351147d9de11b9347c854e881b128ea60080546001600160a01b03199081166001600160a01b039384161790915560208301517fed8d60e34876f751cc8b014c560745351147d9de11b9347c854e881b128ea6018054831691841691909117905560408301517fed8d60e34876f751cc8b014c560745351147d9de11b9347c854e881b128ea6028054831691841691909117905560608301517fed8d60e34876f751cc8b014c560745351147d9de11b9347c854e881b128ea6038054909216921691909117905550565b7f5ea69329017273582817d320489fbd94f775580e90c092699ca6f3d12fdf7d0080546001600160a01b03191673a02cda4ca3a71d7c46997716f4283aa851c288121790556001600160a01b03811661020757604051631e4fbdf760e01b81525f600482015260240160405180910390fd5b610210816102ae565b50610451565b604080516080810182525f808252602082018190529181018290526060810191909152506040805160808101825273687820221192c5b662b25367f70076a37bc79b6c815273848b0066793bcc60346da1f49049357399b8d5956020820152731364cbbf2cdf5032c47d8226a6f6fbd2afcdacac9181019190915273bc91f3dad1a5f19f8390c400196e58073b6a0bc4606082015290565b600780546001600160a01b038381166001600160a01b0319831681179093556040519116919082907f8be0079c531659141344cd1fd0a4f28419497f9722a3daafe3b4186f6b6457e0905f90a35050565b634e487b7160e01b5f52604160045260245ffd5b600181811c9082168061032757607f821691505b60208210810361034557634e487b7160e01b5f52602260045260245ffd5b50919050565b601f82111561039257805f5260205f20601f840160051c810160208510156103705750805b601f840160051c820191505b8181101561038f575f815560010161037c565b50505b505050565b81516001600160401b038111156103b0576103b06102ff565b6103c4816103be8454610313565b8461034b565b6020601f8211600181146103f6575f83156103df5750848201515b5f19600385901b1c1916600184901b17845561038f565b5f84815260208120601f198516915b828110156104255787850151825560209485019460019092019101610405565b508482101561044257868401515f19600387901b60f8161c191681555b50505050600190811b01905550565b6126428061045e5f395ff3fe608060405260043610610191575f3560e01c80638da5cb5b116100dc578063d4ea066411610087578063de64211911610062578063de6421191461045c578063e064b9bb1461047b578063eb3155b51461049a578063f2fde38b146104b9575f5ffd5b8063d4ea066414610415578063d4febb9614610429578063db2e21bc14610448575f5ffd5b8063c535803c116100b7578063c535803c146103cf578063c7b8a75e146103ee578063d46eb1191461040d575f5ffd5b80638da5cb5b1461036557806395d89b411461038c578063b6363cf2146103a0575f5ffd5b8063402dc4e41161013c5780635bebed7e116101175780635bebed7e14610311578063715018a6146103305780637279e26414610346575f5ffd5b8063402dc4e4146102aa578063537d3c50146102de57806354095227146102fd575f5ffd5b8063344ff1011161016c578063344ff1011461024357806334c45743146102775780633c130d9014610296575f5ffd5b806306fdde03146101d15780632fb74e62146101fb578063313ce56714610228575f5ffd5b366101cd5760405134815233907fe1fffcc4923d04b559f4d29a8bfc6cda04eb5b0d3c460751c2402c5c5cc9109c9060200160405180910390a2005b5f5ffd5b3480156101dc575f5ffd5b506101e56104d8565b6040516101f29190611e9e565b60405180910390f35b348015610206575f5ffd5b5061021a610215366004611f09565b610568565b6040519081526020016101f2565b348015610233575f5ffd5b50604051600681526020016101f2565b34801561024e575f5ffd5b5061021a61025d366004611f5f565b6001600160a01b03165f9081526020819052604090205490565b348015610282575f5ffd5b5061021a610291366004611f78565b6105bb565b3480156102a1575f5ffd5b506101e5610664565b3480156102b5575f5ffd5b5061021a6102c4366004611f5f565b6001600160a01b03165f9081526008602052604090205490565b3480156102e9575f5ffd5b5061021a6102f8366004611f09565b610673565b348015610308575f5ffd5b5060035461021a565b34801561031c575f5ffd5b5061021a61032b366004612011565b6106d5565b34801561033b575f5ffd5b50610344610729565b005b348015610351575f5ffd5b5061034461036036600461207e565b61073c565b348015610370575f5ffd5b506007546040516001600160a01b0390911681526020016101f2565b348015610397575f5ffd5b506101e56107c9565b3480156103ab575f5ffd5b506103bf6103ba3660046121cf565b6107d8565b60405190151581526020016101f2565b3480156103da575f5ffd5b506103446103e93660046121f7565b61082a565b3480156103f9575f5ffd5b5061021a61040836600461220e565b6108e0565b610344610983565b348015610420575f5ffd5b5060095461021a565b348015610434575f5ffd5b50610344610443366004612278565b610a99565b348015610453575f5ffd5b50610344610aa8565b348015610467575f5ffd5b5061021a6104763660046122b7565b610be0565b348015610486575f5ffd5b5061021a61049536600461220e565b610c3c565b3480156104a5575f5ffd5b5061021a6104b4366004612340565b610cc1565b3480156104c4575f5ffd5b506103446104d3366004611f5f565b610d60565b6060600480546104e79061237a565b80601f01602080910402602001604051908101604052809291908181526020018280546105139061237a565b801561055e5780601f106105355761010080835404028352916020019161055e565b820191905f5260205f20905b81548152906001019060200180831161054157829003601f168201915b5050505050905090565b5f6105b233866105ad8787878080601f0160208091040260200160405190810160405280939291908181526020018383808284375f92019190915250610d9d92505050565b610daa565b95945050505050565b5f6105c688336107d8565b883390916105ff57604051631ae7729b60e11b81526001600160a01b039283166004820152911660248201526044015b60405180910390fd5b505061064c88886106458989898080601f0160208091040260200160405190810160405280939291908181526020018383808284375f92019190915250610d9d92505050565b8686610e2a565b90506106588133610e81565b50979650505050505050565b6060600680546104e79061237a565b5f61067e8433610e93565b843390916106b15760405163118f6e5360e31b815260048101929092526001600160a01b031660248201526044016105f6565b50506106c03386868686610e2a565b90506106cc8133610e81565b50949350505050565b5f6106e08233610e93565b823390916107135760405163118f6e5360e31b815260048101929092526001600160a01b031660248201526044016105f6565b5050610720338484610daa565b90505b92915050565b610731610e9e565b61073a5f610ecb565b565b6107468382610f34565b5f83815260026020526040902054838161077657604051630ab5f57d60e01b81526004016105f691815260200190565b5060405167ffffffffffffffff8416815281907f83bbbc07896439e5d950a6cead04cbc676180af7a61cecf43f5296475057f5719060200160405180910390a25050505f90815260026020526040812055565b6060600580546104e79061237a565b5f816001600160a01b0316836001600160a01b031614806107205750506001600160a01b039182165f90815260016020908152604080832093909416825291909152205465ffffffffffff1642111590565b6108348133610e93565b801561084557506108458130610e93565b813390916108785760405163118f6e5360e31b815260048101929092526001600160a01b031660248201526044016105f6565b50506040805160018082528183019092525f916020808301908036833701905050905081815f815181106108ae576108ae6123b2565b60209081029190910101525f6108cb82631c9e789960e21b610f9b565b5f908152600260205260409020929092555050565b5f6108eb8433610e93565b8433909161091e5760405163118f6e5360e31b815260048101929092526001600160a01b031660248201526044016105f6565b505061092a86336107d8565b8633909161095e57604051631ae7729b60e11b81526001600160a01b039283166004820152911660248201526044016105f6565b505061096d8686868686610e2a565b90506109798133610e81565b5095945050505050565b5f34116109de5760405162461bcd60e51b815260206004820152602360248201527f436f6e666964656e7469616c574554483a2043616e6e6f74207772617020302060448201526208aa8960eb1b60648201526084016105f6565b5f6109e834610fa7565b335f90815260086020526040902054909150610a049082610fb9565b335f90815260086020526040902055600954610a209082610fb9565b600955335f90815260086020526040902054610a3b90610fe7565b50335f81815260086020526040902054610a5491610ff6565b50610a60600954610fe7565b5060405134815233907fb61d00fdfee32467c7d81db64c811ae60c104c346debf36a14afe84b8fce59e59060200160405180910390a250565b610aa4338383611001565b5050565b610ab0610e9e565b4780610b0a5760405162461bcd60e51b8152602060048201526024808201527f436f6e666964656e7469616c574554483a204e6f2045544820746f20776974686044820152636472617760e01b60648201526084016105f6565b5f610b1d6007546001600160a01b031690565b6001600160a01b0316826040515f6040518083038185875af1925050503d805f8114610b64576040519150601f19603f3d011682016040523d82523d5f602084013e610b69565b606091505b5050905080610aa45760405162461bcd60e51b815260206004820152602d60248201527f436f6e666964656e7469616c574554483a20456d657267656e6379207769746860448201527f64726177616c206661696c65640000000000000000000000000000000000000060648201526084016105f6565b5f610c2533886106458989898080601f0160208091040260200160405190810160405280939291908181526020018383808284375f92019190915250610d9d92505050565b9050610c318133610e81565b509695505050505050565b5f610c4786336107d8565b86339091610c7b57604051631ae7729b60e11b81526001600160a01b039283166004820152911660248201526044016105f6565b505061096d86866105ad8787878080601f0160208091040260200160405190810160405280939291908181526020018383808284375f92019190915250610d9d92505050565b5f610ccc8233610e93565b82339091610cff5760405163118f6e5360e31b815260048101929092526001600160a01b031660248201526044016105f6565b5050610d0b84336107d8565b84339091610d3f57604051631ae7729b60e11b81526001600160a01b039283166004820152911660248201526044016105f6565b5050610d4c848484610daa565b9050610d588133610e81565b509392505050565b610d68610e9e565b6001600160a01b038116610d9157604051631e4fbdf760e01b81525f60048201526024016105f6565b610d9a81610ecb565b50565b5f61072083836005611078565b5f806001600160a01b038516610ddf57604051631a9bbf8b60e11b81526001600160a01b0390911660048201526024016105f6565b505f6001600160a01b038416610e1457604051636e41946d60e11b81526001600160a01b0390911660048201526024016105f6565b50610e20848484611185565b90505b9392505050565b5f5f610e37878787610daa565b90505f610e48338989858989611362565b90505f610e68888a610e6385610e5d5f611466565b8861147c565b611185565b9050610e748382611488565b9998505050505050505050565b5f610e8c83836114b6565b5090919050565b5f610720838361152a565b6007546001600160a01b0316331461073a5760405163118cdaa760e01b81523360048201526024016105f6565b600780546001600160a01b038381167fffffffffffffffffffffffff0000000000000000000000000000000000000000831681179093556040519116919082907f8be0079c531659141344cd1fd0a4f28419497f9722a3daafe3b4186f6b6457e0905f90a35050565b5f610f3e836115b6565b90505f610f4b8284611687565b905080610f6b5760405163cf6c44e960e01b815260040160405180910390fd5b60405184907f1af0453083661051f6e56e5c070792320652e612154bf9af8637bb1e7655b99d905f90a250505050565b5f61072083835f61178f565b5f6107238263ffffffff1660046118c8565b5f82610fcb57610fc85f610fa7565b92505b81610fdc57610fd95f610fa7565b91505b61072083835f61196a565b5f610ff28230611a30565b5090565b5f610e8c8383611a30565b6001600160a01b038381165f81815260016020908152604080832094871680845294825291829020805465ffffffffffff191665ffffffffffff871690811790915591519182527f921a218a75d18e8ec5704851e6b234a85725b21a2521ce889622c35dedc1fa12910160405180910390a3505050565b7fed8d60e34876f751cc8b014c560745351147d9de11b9347c854e881b128ea6015460405163196d0b9b60e01b81525f915f5160206126165f395f51905f52916001600160a01b039091169063196d0b9b906110de9088903390899089906004016123fa565b6020604051808303815f875af11580156110fa573d5f5f3e3d5ffd5b505050506040513d601f19601f8201168201806040525081019061111e9190612430565b8154604051630f8e573b60e21b8152600481018390523360248201529193506001600160a01b031690633e395cec906044015f604051808303815f87803b158015611167575f5ffd5b505af1158015611179573d5f5f3e3d5ffd5b50505050509392505050565b5f80806001600160a01b0386166111bb576111a260035485611a76565b90925090506111b081610fe7565b50600381905561123f565b6001600160a01b0386165f9081526020819052604090205486816111fe57604051636b8830d760e11b81526001600160a01b0390911660048201526024016105f6565b506112098186611ac0565b909350915061121782610fe7565b506112228288610ff6565b50506001600160a01b0386165f9081526020819052604090208190555b611252828561124d5f611466565b61147c565b92506001600160a01b0385166112845761126e60035484611488565b905061127981610fe7565b5060038190556112d8565b6001600160a01b0385165f908152602081905260409020546112a69084611aeb565b90506112b181610fe7565b506112bc8186610ff6565b506001600160a01b0385165f9081526020819052604090208190555b6001600160a01b038616156112f3576112f18387610ff6565b505b6001600160a01b0385161561130e5761130c8386610ff6565b505b61131783610fe7565b5082856001600160a01b0316876001600160a01b03167f67500e8d0ed826d2194f514dd0d8124f35648ab6e3fb5e6ed867134cffe661e960405160405180910390a450509392505050565b5f6001600160a01b0385163b1561144f576040516346083bfd60e01b81526001600160a01b038616906346083bfd906113a7908a908a90899089908990600401612447565b6020604051808303815f875af19250505080156113e1575060408051601f3d908101601f191682019092526113de91810190612430565b60015b611448573d80801561140e576040519150601f19603f3d011682016040523d82523d5f602084013e611413565b606091505b5080515f0361144057604051636e41946d60e11b81526001600160a01b03871660048201526024016105f6565b805181602001fd5b905061145c565b6114596001611b0b565b90505b9695505050505050565b5f6107238267ffffffffffffffff1660056118c8565b5f610e20848484611b26565b5f8261149a576114975f611466565b92505b816114ab576114a85f611466565b91505b61072083835f611bb3565b5f5160206126165f395f51905f528054604051630f8e573b60e21b8152600481018590526001600160a01b03848116602483015290911690633e395cec906044015b5f604051808303815f87803b15801561150f575f5ffd5b505af1158015611521573d5f5f3e3d5ffd5b50505050505050565b5f805f5160206126165f395f51905f5280546040516382027b6d60e01b8152600481018790526001600160a01b0386811660248301529293509116906382027b6d90604401602060405180830381865afa15801561158a573d5f5f3e3d5ffd5b505050506040513d601f19601f820116820180604052508101906115ae919061249c565b949350505050565b5f8181527f5ea69329017273582817d320489fbd94f775580e90c092699ca6f3d12fdf7d0260205260408120546060917f5ea69329017273582817d320489fbd94f775580e90c092699ca6f3d12fdf7d009190036116275760405163d66ca67560e01b815260040160405180910390fd5b5f8381526002820160209081526040918290208054835181840281018401909452808452909183018282801561167a57602002820191905f5260205f20905b815481526020019060010190808311611666575b5050505050915050919050565b5f60248161169485611c3d565b90505f8167ffffffffffffffff8111156116b0576116b0612039565b6040519080825280601f01601f1916602001820160405280156116da576020820181803683370190505b509050818360208301377fed8d60e34876f751cc8b014c560745351147d9de11b9347c854e881b128ea60254604051632c027b1360e21b81525f5160206126165f395f51905f52916001600160a01b03169063b009ec4c90611744908a9086908b906004016124f5565b6020604051808303815f875af1158015611760573d5f5f3e3d5ffd5b505050506040513d601f19601f82011682018060405250810190611784919061249c565b979650505050505050565b7f5ea69329017273582817d320489fbd94f775580e90c092699ca6f3d12fdf7d01545f5160206126165f395f51905f528054604051637d6e912360e11b81527f5ea69329017273582817d320489fbd94f775580e90c092699ca6f3d12fdf7d0092916001600160a01b03169063fadd22469061180f90899060040161257f565b5f604051808303815f87803b158015611826575f5ffd5b505af1158015611838573d5f5f3e3d5ffd5b50508354604051633263b83b60e01b81526001600160a01b039091169250633263b83b915086906118719087908b908b90600401612591565b5f604051808303818588803b158015611888575f5ffd5b505af115801561189a573d5f5f3e3d5ffd5b50505050506118a98387611cea565b600182018054905f6118ba836125d6565b919050555050509392505050565b7fed8d60e34876f751cc8b014c560745351147d9de11b9347c854e881b128ea60154604051639cd07acb60e01b81525f915f5160206126165f395f51905f52916001600160a01b0390911690639cd07acb9061192a90879087906004016125ee565b6020604051808303815f875af1158015611946573d5f5f3e3d5ffd5b505050506040513d601f19601f820116820180604052508101906115ae9190612430565b5f5f821561197d5750600160f81b611980565b505f5b7fed8d60e34876f751cc8b014c560745351147d9de11b9347c854e881b128ea6015460405163022f65e760e31b815260048101879052602481018690526001600160f81b0319831660448201525f5160206126165f395f51905f52916001600160a01b03169063117b2f38906064015b6020604051808303815f875af1158015611a0c573d5f5f3e3d5ffd5b505050506040513d601f19601f8201168201806040525081019061145c9190612430565b5f5160206126165f395f51905f528054604051635ca4b5b160e11b8152600481018590526001600160a01b0384811660248301529091169063b9496b62906044016114f8565b5f8083611a9157611a876001611b0b565b9150829050611ab9565b5f611a9c8585611aeb565b9050611aa88186611d7d565b9250611ab583828761147c565b9150505b9250929050565b5f5f611acc8484611d7d565b9150611ae282611adc8686611488565b8661147c565b90509250929050565b5f82611afd57611afa5f611466565b92505b81610fdc57610fd95f611466565b5f61072382611b1a575f611b1d565b60015b60ff165f6118c8565b5f805f5160206126165f395f51905f526001810154604051637702dcff60e01b81526004810188905260248101879052604481018690529192506001600160a01b031690637702dcff906064016020604051808303815f875af1158015611b8f573d5f5f3e3d5ffd5b505050506040513d601f19601f820116820180604052508101906105b29190612430565b5f5f8215611bc65750600160f81b611bc9565b505f5b7fed8d60e34876f751cc8b014c560745351147d9de11b9347c854e881b128ea601546040516303056db360e31b815260048101879052602481018690526001600160f81b0319831660448201525f5160206126165f395f51905f52916001600160a01b03169063182b6d98906064016119f0565b80515f9081805b82811015611cde575f858281518110611c5f57611c5f6123b2565b6020026020010151601e60208110611c7957611c796123b2565b1a6053811115611c8b57611c8b6123c6565b90506009816053811115611ca157611ca16123c6565b60ff161015611cbc57611cb5602084612602565b9250611cd5565b60405163ce54a8d160e01b815260040160405180910390fd5b50600101611c44565b506115ae602082612602565b5f8281527f5ea69329017273582817d320489fbd94f775580e90c092699ca6f3d12fdf7d0260205260409020547f5ea69329017273582817d320489fbd94f775580e90c092699ca6f3d12fdf7d009015611d5757604051633f06d22b60e01b815260040160405180910390fd5b5f83815260028201602090815260409091208351611d7792850190611e1c565b50505050565b5f82611d8f57611d8c5f611466565b92505b81611da057611d9d5f611466565b91505b61072083835f805f7fed8d60e34876f751cc8b014c560745351147d9de11b9347c854e881b128ea60154604051631391547f60e01b815260048101879052602481018690526001600160f81b0319831660448201525f5160206126165f395f51905f52916001600160a01b031690631391547f906064016119f0565b828054828255905f5260205f20908101928215611e55579160200282015b82811115611e55578251825591602001919060010190611e3a565b50610ff29291505b80821115610ff2575f8155600101611e5d565b5f81518084528060208401602086015e5f602082860101526020601f19601f83011685010191505092915050565b602081525f6107206020830184611e70565b80356001600160a01b0381168114611ec6575f5ffd5b919050565b5f5f83601f840112611edb575f5ffd5b50813567ffffffffffffffff811115611ef2575f5ffd5b602083019150836020828501011115611ab9575f5ffd5b5f5f5f5f60608587031215611f1c575f5ffd5b611f2585611eb0565b935060208501359250604085013567ffffffffffffffff811115611f47575f5ffd5b611f5387828801611ecb565b95989497509550505050565b5f60208284031215611f6f575f5ffd5b61072082611eb0565b5f5f5f5f5f5f5f60a0888a031215611f8e575f5ffd5b611f9788611eb0565b9650611fa560208901611eb0565b955060408801359450606088013567ffffffffffffffff811115611fc7575f5ffd5b611fd38a828b01611ecb565b909550935050608088013567ffffffffffffffff811115611ff2575f5ffd5b611ffe8a828b01611ecb565b989b979a50959850939692959293505050565b5f5f60408385031215612022575f5ffd5b61202b83611eb0565b946020939093013593505050565b634e487b7160e01b5f52604160045260245ffd5b604051601f8201601f1916810167ffffffffffffffff8111828210171561207657612076612039565b604052919050565b5f5f5f60608486031215612090575f5ffd5b83359250602084013567ffffffffffffffff811681146120ae575f5ffd5b9150604084013567ffffffffffffffff8111156120c9575f5ffd5b8401601f810186136120d9575f5ffd5b803567ffffffffffffffff8111156120f3576120f3612039565b8060051b6121036020820161204d565b9182526020818401810192908101908984111561211e575f5ffd5b6020850192505b838310156121c057823567ffffffffffffffff811115612143575f5ffd5b8501603f81018b13612153575f5ffd5b602081013567ffffffffffffffff81111561217057612170612039565b612183601f8201601f191660200161204d565b8181526040838301018d1015612197575f5ffd5b816040840160208301375f60208383010152808552505050602082019150602083019250612125565b80955050505050509250925092565b5f5f604083850312156121e0575f5ffd5b6121e983611eb0565b9150611ae260208401611eb0565b5f60208284031215612207575f5ffd5b5035919050565b5f5f5f5f5f60808688031215612222575f5ffd5b61222b86611eb0565b945061223960208701611eb0565b935060408601359250606086013567ffffffffffffffff81111561225b575f5ffd5b61226788828901611ecb565b969995985093965092949392505050565b5f5f60408385031215612289575f5ffd5b61229283611eb0565b9150602083013565ffffffffffff811681146122ac575f5ffd5b809150509250929050565b5f5f5f5f5f5f608087890312156122cc575f5ffd5b6122d587611eb0565b955060208701359450604087013567ffffffffffffffff8111156122f7575f5ffd5b61230389828a01611ecb565b909550935050606087013567ffffffffffffffff811115612322575f5ffd5b61232e89828a01611ecb565b979a9699509497509295939492505050565b5f5f5f60608486031215612352575f5ffd5b61235b84611eb0565b925061236960208501611eb0565b929592945050506040919091013590565b600181811c9082168061238e57607f821691505b6020821081036123ac57634e487b7160e01b5f52602260045260245ffd5b50919050565b634e487b7160e01b5f52603260045260245ffd5b634e487b7160e01b5f52602160045260245ffd5b605481106123f657634e487b7160e01b5f52602160045260245ffd5b9052565b8481526001600160a01b0384166020820152608060408201525f6124216080830185611e70565b90506105b260608301846123da565b5f60208284031215612440575f5ffd5b5051919050565b6001600160a01b03861681526001600160a01b038516602082015283604082015260806060820152816080820152818360a08301375f81830160a090810191909152601f909201601f19160101949350505050565b5f602082840312156124ac575f5ffd5b81518015158114610e23575f5ffd5b5f8151808452602084019350602083015f5b828110156124eb5781518652602095860195909101906001016124cd565b5093949350505050565b606081525f61250760608301866124bb565b82810360208401526125198186611e70565b9050828103604084015280845180835260208301915060208160051b840101602087015f5b8381101561257057601f1986840301855261255a838351611e70565b602095860195909350919091019060010161253e565b50909998505050505050505050565b602081525f61072060208301846124bb565b838152606060208201525f6125a960608301856124bb565b905063ffffffff60e01b83166040830152949350505050565b634e487b7160e01b5f52601160045260245ffd5b5f600182016125e7576125e76125c2565b5060010190565b82815260408101610e2360208301846123da565b80820180821115610723576107236125c256feed8d60e34876f751cc8b014c560745351147d9de11b9347c854e881b128ea600a164736f6c634300081b000a68747470733a2f2f6170692e6578616d706c652e636f6d2f6d657461646174612f",
  "devdoc": {
    "details": "This contract allows users to wrap ETH into confidential WETH tokens",
    "errors": {
      "ConfidentialFungibleTokenInvalidGatewayRequest(uint256)": [
        {
          "details": "The given gateway request ID `requestId` is invalid."
        }
      ],
      "ConfidentialFungibleTokenInvalidReceiver(address)": [
        {
          "details": "The given receiver `receiver` is invalid for transfers."
        }
      ],
      "ConfidentialFungibleTokenInvalidSender(address)": [
        {
          "details": "The given sender `sender` is invalid for transfers."
        }
      ],
      "ConfidentialFungibleTokenUnauthorizedCaller(address)": [
        {
          "details": "The given caller `caller` is not authorized for the current operation."
        }
      ],
      "ConfidentialFungibleTokenUnauthorizedSpender(address,address)": [
        {
          "details": "The given holder `holder` is not authorized to spend on behalf of `spender`."
        }
      ],
      "ConfidentialFungibleTokenUnauthorizedUseOfEncryptedAmount(bytes32,address)": [
        {
          "details": "The caller `user` does not have access to the encrypted amount `amount`. NOTE: Try using the equivalent transfer function with an input proof."
        }
      ],
      "ConfidentialFungibleTokenZeroBalance(address)": [
        {
          "details": "The holder `holder` is trying to send tokens but has a balance of 0."
        }
      ],
      "OwnableInvalidOwner(address)": [
        {
          "details": "The owner is not a valid owner account. (eg. `address(0)`)"
        }
      ],
      "OwnableUnauthorizedAccount(address)": [
        {
          "details": "The caller account is not authorized to perform an operation."
        }
      ]
    },
    "events": {
      "AmountDisclosed(bytes32,uint64)": {
        "details": "Emitted when an encrypted amount is disclosed. Accounts with access to the encrypted amount `encryptedAmount` that is also accessible to this contract should be able to disclose the amount. This functionality is implementation specific."
      },
      "ConfidentialTransfer(address,address,bytes32)": {
        "details": "Emitted when a confidential transfer is made from `from` to `to` of encrypted amount `amount`."
      },
      "OperatorSet(address,address,uint48)": {
        "details": "Emitted when the expiration timestamp for an operator `operator` is updated for a given `holder`. The operator may move any amount of tokens on behalf of the holder until the timestamp `until`."
      }
    },
    "kind": "dev",
    "methods": {
      "confidentialBalanceOf(address)": {
        "details": "Returns the confidential balance of the account `account`."
      },
      "confidentialTotalSupply()": {
        "details": "Returns the confidential total supply of the token."
      },
      "confidentialTransfer(address,bytes32)": {
        "details": "Similar to {confidentialTransfer-address-externalEuint64-bytes} but without an input proof. The caller *must* already be allowed by ACL for the given `amount`."
      },
      "confidentialTransfer(address,bytes32,bytes)": {
        "details": "Transfers the encrypted amount `encryptedAmount` to `to` with the given input proof `inputProof`. Returns the encrypted amount that was actually transferred."
      },
      "confidentialTransferAndCall(address,bytes32,bytes)": {
        "details": "Similar to {confidentialTransfer-address-euint64} but with a callback to `to` after the transfer."
      },
      "confidentialTransferAndCall(address,bytes32,bytes,bytes)": {
        "details": "Similar to {confidentialTransfer-address-externalEuint64-bytes} but with a callback to `to` after the transfer. The callback is made to the {IConfidentialFungibleTokenReceiver-onConfidentialTransferReceived} function on the to address with the actual transferred amount (may differ from the given `encryptedAmount`) and the given data `data`."
      },
      "confidentialTransferFrom(address,address,bytes32)": {
        "details": "Similar to {confidentialTransferFrom-address-address-externalEuint64-bytes} but without an input proof. The caller *must* be already allowed by ACL for the given `amount`."
      },
      "confidentialTransferFrom(address,address,bytes32,bytes)": {
        "details": "Transfers the encrypted amount `encryptedAmount` from `from` to `to` with the given input proof `inputProof`. `msg.sender` must be either `from` or an operator for `from`. Returns the encrypted amount that was actually transferred."
      },
      "confidentialTransferFromAndCall(address,address,bytes32,bytes)": {
        "details": "Similar to {confidentialTransferFrom-address-address-euint64} but with a callback to `to` after the transfer."
      },
      "confidentialTransferFromAndCall(address,address,bytes32,bytes,bytes)": {
        "details": "Similar to {confidentialTransferFrom-address-address-externalEuint64-bytes} but with a callback to `to` after the transfer."
      },
      "decimals()": {
        "details": "Returns the number of decimals of the token. Recommended to be 6."
      },
      "discloseEncryptedAmount(bytes32)": {
        "details": "Discloses an encrypted amount `encryptedAmount` publicly via an {IConfidentialFungibleToken-AmountDisclosed} event. The caller and this contract must be authorized to use the encrypted amount on the ACL. NOTE: This is an asynchronous operation where the actual decryption happens off-chain and {finalizeDiscloseEncryptedAmount} is called with the result."
      },
      "emergencyWithdraw()": {
        "details": "This function should only be used in emergency situations"
      },
      "finalizeDiscloseEncryptedAmount(uint256,uint64,bytes[])": {
        "details": "Finalizes a disclose encrypted amount request."
      },
      "getEncryptedBalance(address)": {
        "params": {
          "user": "The user address"
        },
        "returns": {
          "_0": "The encrypted balance"
        }
      },
      "getEncryptedTotalSupply()": {
        "returns": {
          "_0": "The encrypted total supply"
        }
      },
      "isOperator(address,address)": {
        "details": "Returns true if `spender` is currently an operator for `holder`."
      },
      "name()": {
        "details": "Returns the name of the token."
      },
      "owner()": {
        "details": "Returns the address of the current owner."
      },
      "renounceOwnership()": {
        "details": "Leaves the contract without owner. It will not be possible to call `onlyOwner` functions. Can only be called by the current owner. NOTE: Renouncing ownership will leave the contract without an owner, thereby disabling any functionality that is only available to the owner."
      },
      "setOperator(address,uint48)": {
        "details": "Sets `operator` as an operator for `holder` until the timestamp `until`. NOTE: An operator may transfer any amount of tokens on behalf of a holder while approved."
      },
      "symbol()": {
        "details": "Returns the symbol of the token."
      },
      "tokenURI()": {
        "details": "Returns the token URI."
      },
      "transferOwnership(address)": {
        "details": "Transfers ownership of the contract to a new account (`newOwner`). Can only be called by the current owner."
      },
      "wrap()": {
        "details": "Users send ETH and receive encrypted cWETH tokens"
      }
    },
    "title": "Confidential WETH (cWETH)",
    "version": 1
  },
  "userdoc": {
    "errors": {
      "HandlesAlreadySavedForRequestID()": [
        {
          "notice": "Returned if some handles were already saved for corresponding ID."
        }
      ],
      "InvalidKMSSignatures()": [
        {
          "notice": "Returned if the returned KMS signatures are not valid."
        }
      ],
      "NoHandleFoundForRequestID()": [
        {
          "notice": "Returned if there was not handle found for the requested ID."
        }
      ],
      "UnsupportedHandleType()": [
        {
          "notice": "Returned if the requested handle to be decrypted is not of a supported type."
        }
      ]
    },
    "events": {
      "DecryptionFulfilled(uint256)": {
        "notice": "This event is emitted when requested decryption has been fulfilled."
      }
    },
    "kind": "user",
    "methods": {
      "emergencyWithdraw()": {
        "notice": "Emergency function to withdraw ETH (only owner)"
      },
      "getEncryptedBalance(address)": {
        "notice": "Get encrypted balance of a user"
      },
      "getEncryptedTotalSupply()": {
        "notice": "Get encrypted total supply"
      },
      "wrap()": {
        "notice": "Wrap ETH into confidential WETH"
      }
    },
    "notice": "ERC7984 implementation for confidential WETH with wrap/unwrap functionality",
    "version": 1
  },
  "storageLayout": {
    "storage": [
      {
        "astId": 39365,
        "contract": "contracts/ConfidentialWETH.sol:ConfidentialWETH",
        "label": "_balances",
        "offset": 0,
        "slot": "0",
        "type": "t_mapping(t_address,t_userDefinedValueType(euint64)42081)"
      },
      {
        "astId": 39371,
        "contract": "contracts/ConfidentialWETH.sol:ConfidentialWETH",
        "label": "_operators",
        "offset": 0,
        "slot": "1",
        "type": "t_mapping(t_address,t_mapping(t_address,t_uint48))"
      },
      {
        "astId": 39376,
        "contract": "contracts/ConfidentialWETH.sol:ConfidentialWETH",
        "label": "_requestHandles",
        "offset": 0,
        "slot": "2",
        "type": "t_mapping(t_uint256,t_userDefinedValueType(euint64)42081)"
      },
      {
        "astId": 39379,
        "contract": "contracts/ConfidentialWETH.sol:ConfidentialWETH",
        "label": "_totalSupply",
        "offset": 0,
        "slot": "3",
        "type": "t_userDefinedValueType(euint64)42081"
      },
      {
        "astId": 39381,
        "contract": "contracts/ConfidentialWETH.sol:ConfidentialWETH",
        "label": "_name",
        "offset": 0,
        "slot": "4",
        "type": "t_string_storage"
      },
      {
        "astId": 39383,
        "contract": "contracts/ConfidentialWETH.sol:ConfidentialWETH",
        "label": "_symbol",
        "offset": 0,
        "slot": "5",
        "type": "t_string_storage"
      },
      {
        "astId": 39385,
        "contract": "contracts/ConfidentialWETH.sol:ConfidentialWETH",
        "label": "_tokenURI",
        "offset": 0,
        "slot": "6",
        "type": "t_string_storage"
      },
      {
        "astId": 40645,
        "contract": "contracts/ConfidentialWETH.sol:ConfidentialWETH",
        "label": "_owner",
        "offset": 0,
        "slot": "7",
        "type": "t_address"
      },
      {
        "astId": 41891,
        "contract": "contracts/ConfidentialWETH.sol:ConfidentialWETH",
        "label": "_encryptedBalances",
        "offset": 0,
        "slot": "8",
        "type": "t_mapping(t_address,t_userDefinedValueType(euint32)42073)"
      },
      {
        "astId": 41894,
        "contract": "contracts/ConfidentialWETH.sol:ConfidentialWETH",
        "label": "_totalSupply",
        "offset": 0,
        "slot": "9",
        "type": "t_userDefinedValueType(euint32)42073"
      }
    ],
    "types": {
      "t_address": {
        "encoding": "inplace",
        "label": "address",
        "numberOfBytes": "20"
      },
      "t_mapping(t_address,t_mapping(t_address,t_uint48))": {
        "encoding": "mapping",
        "key": "t_address",
        "label": "mapping(address => mapping(address => uint48))",
        "numberOfBytes": "32",
        "value": "t_mapping(t_address,t_uint48)"
      },
      "t_mapping(t_address,t_uint48)": {
        "encoding": "mapping",
        "key": "t_address",
        "label": "mapping(address => uint48)",
        "numberOfBytes": "32",
        "value": "t_uint48"
      },
      "t_mapping(t_address,t_userDefinedValueType(euint32)42073)": {
        "encoding": "mapping",
        "key": "t_address",
        "label": "mapping(address => euint32)",
        "numberOfBytes": "32",
        "value": "t_userDefinedValueType(euint32)42073"
      },
      "t_mapping(t_address,t_userDefinedValueType(euint64)42081)": {
        "encoding": "mapping",
        "key": "t_address",
        "label": "mapping(address => euint64)",
        "numberOfBytes": "32",
        "value": "t_userDefinedValueType(euint64)42081"
      },
      "t_mapping(t_uint256,t_userDefinedValueType(euint64)42081)": {
        "encoding": "mapping",
        "key": "t_uint256",
        "label": "mapping(uint256 => euint64)",
        "numberOfBytes": "32",
        "value": "t_userDefinedValueType(euint64)42081"
      },
      "t_string_storage": {
        "encoding": "bytes",
        "label": "string",
        "numberOfBytes": "32"
      },
      "t_uint256": {
        "encoding": "inplace",
        "label": "uint256",
        "numberOfBytes": "32"
      },
      "t_uint48": {
        "encoding": "inplace",
        "label": "uint48",
        "numberOfBytes": "6"
      },
      "t_userDefinedValueType(euint32)42073": {
        "encoding": "inplace",
        "label": "euint32",
        "numberOfBytes": "32"
      },
      "t_userDefinedValueType(euint64)42081": {
        "encoding": "inplace",
        "label": "euint64",
        "numberOfBytes": "32"
      }
    }
  }
}