{
  "address": "0xF41578D32D94304Af927653359780DEBd7E169cA",
  "abi": [
    {
      "inputs": [
        {
          "internalType": "address",
          "name": "owner",
          "type": "address"
        },
        {
          "internalType": "string",
          "name": "name",
          "type": "string"
        },
        {
          "internalType": "string",
          "name": "symbol",
          "type": "string"
        },
        {
          "internalType": "string",
          "name": "uri",
          "type": "string"
        }
      ],
      "stateMutability": "nonpayable",
      "type": "constructor"
    },
    {
      "inputs": [
        {
          "internalType": "uint256",
          "name": "requestId",
          "type": "uint256"
        }
      ],
      "name": "ConfidentialFungibleTokenInvalidGatewayRequest",
      "type": "error"
    },
    {
      "inputs": [
        {
          "internalType": "address",
          "name": "receiver",
          "type": "address"
        }
      ],
      "name": "ConfidentialFungibleTokenInvalidReceiver",
      "type": "error"
    },
    {
      "inputs": [
        {
          "internalType": "address",
          "name": "sender",
          "type": "address"
        }
      ],
      "name": "ConfidentialFungibleTokenInvalidSender",
      "type": "error"
    },
    {
      "inputs": [
        {
          "internalType": "address",
          "name": "caller",
          "type": "address"
        }
      ],
      "name": "ConfidentialFungibleTokenUnauthorizedCaller",
      "type": "error"
    },
    {
      "inputs": [
        {
          "internalType": "address",
          "name": "holder",
          "type": "address"
        },
        {
          "internalType": "address",
          "name": "spender",
          "type": "address"
        }
      ],
      "name": "ConfidentialFungibleTokenUnauthorizedSpender",
      "type": "error"
    },
    {
      "inputs": [
        {
          "internalType": "euint64",
          "name": "amount",
          "type": "bytes32"
        },
        {
          "internalType": "address",
          "name": "user",
          "type": "address"
        }
      ],
      "name": "ConfidentialFungibleTokenUnauthorizedUseOfEncryptedAmount",
      "type": "error"
    },
    {
      "inputs": [
        {
          "internalType": "address",
          "name": "holder",
          "type": "address"
        }
      ],
      "name": "ConfidentialFungibleTokenZeroBalance",
      "type": "error"
    },
    {
      "inputs": [],
      "name": "HandlesAlreadySavedForRequestID",
      "type": "error"
    },
    {
      "inputs": [],
      "name": "InvalidKMSSignatures",
      "type": "error"
    },
    {
      "inputs": [],
      "name": "NoHandleFoundForRequestID",
      "type": "error"
    },
    {
      "inputs": [
        {
          "internalType": "address",
          "name": "owner",
          "type": "address"
        }
      ],
      "name": "OwnableInvalidOwner",
      "type": "error"
    },
    {
      "inputs": [
        {
          "internalType": "address",
          "name": "account",
          "type": "address"
        }
      ],
      "name": "OwnableUnauthorizedAccount",
      "type": "error"
    },
    {
      "inputs": [
        {
          "internalType": "address",
          "name": "token",
          "type": "address"
        }
      ],
      "name": "SafeERC20FailedOperation",
      "type": "error"
    },
    {
      "inputs": [],
      "name": "UnsupportedHandleType",
      "type": "error"
    },
    {
      "anonymous": false,
      "inputs": [
        {
          "indexed": true,
          "internalType": "euint64",
          "name": "encryptedAmount",
          "type": "bytes32"
        },
        {
          "indexed": false,
          "internalType": "uint64",
          "name": "amount",
          "type": "uint64"
        }
      ],
      "name": "AmountDisclosed",
      "type": "event"
    },
    {
      "anonymous": false,
      "inputs": [
        {
          "indexed": true,
          "internalType": "address",
          "name": "from",
          "type": "address"
        },
        {
          "indexed": true,
          "internalType": "address",
          "name": "to",
          "type": "address"
        },
        {
          "indexed": true,
          "internalType": "euint64",
          "name": "amount",
          "type": "bytes32"
        }
      ],
      "name": "ConfidentialTransfer",
      "type": "event"
    },
    {
      "anonymous": false,
      "inputs": [
        {
          "indexed": true,
          "internalType": "address",
          "name": "user",
          "type": "address"
        }
      ],
      "name": "ConfidentialUnwrap",
      "type": "event"
    },
    {
      "anonymous": false,
      "inputs": [
        {
          "indexed": true,
          "internalType": "address",
          "name": "user",
          "type": "address"
        }
      ],
      "name": "ConfidentialWrap",
      "type": "event"
    },
    {
      "anonymous": false,
      "inputs": [
        {
          "indexed": true,
          "internalType": "uint256",
          "name": "requestID",
          "type": "uint256"
        }
      ],
      "name": "DecryptionFulfilled",
      "type": "event"
    },
    {
      "anonymous": false,
      "inputs": [
        {
          "indexed": true,
          "internalType": "address",
          "name": "holder",
          "type": "address"
        },
        {
          "indexed": true,
          "internalType": "address",
          "name": "operator",
          "type": "address"
        },
        {
          "indexed": false,
          "internalType": "uint48",
          "name": "until",
          "type": "uint48"
        }
      ],
      "name": "OperatorSet",
      "type": "event"
    },
    {
      "anonymous": false,
      "inputs": [
        {
          "indexed": true,
          "internalType": "address",
          "name": "previousOwner",
          "type": "address"
        },
        {
          "indexed": true,
          "internalType": "address",
          "name": "newOwner",
          "type": "address"
        }
      ],
      "name": "OwnershipTransferred",
      "type": "event"
    },
    {
      "inputs": [],
      "name": "WETH",
      "outputs": [
        {
          "internalType": "contract IERC20",
          "name": "",
          "type": "address"
        }
      ],
      "stateMutability": "view",
      "type": "function"
    },
    {
      "inputs": [
        {
          "internalType": "uint256",
          "name": "amount",
          "type": "uint256"
        }
      ],
      "name": "completeUnwrap",
      "outputs": [],
      "stateMutability": "nonpayable",
      "type": "function"
    },
    {
      "inputs": [
        {
          "internalType": "address",
          "name": "account",
          "type": "address"
        }
      ],
      "name": "confidentialBalanceOf",
      "outputs": [
        {
          "internalType": "euint64",
          "name": "",
          "type": "bytes32"
        }
      ],
      "stateMutability": "view",
      "type": "function"
    },
    {
      "inputs": [],
      "name": "confidentialTotalSupply",
      "outputs": [
        {
          "internalType": "euint64",
          "name": "",
          "type": "bytes32"
        }
      ],
      "stateMutability": "view",
      "type": "function"
    },
    {
      "inputs": [
        {
          "internalType": "address",
          "name": "to",
          "type": "address"
        },
        {
          "internalType": "externalEuint64",
          "name": "encryptedAmount",
          "type": "bytes32"
        },
        {
          "internalType": "bytes",
          "name": "inputProof",
          "type": "bytes"
        }
      ],
      "name": "confidentialTransfer",
      "outputs": [
        {
          "internalType": "euint64",
          "name": "",
          "type": "bytes32"
        }
      ],
      "stateMutability": "nonpayable",
      "type": "function"
    },
    {
      "inputs": [
        {
          "internalType": "address",
          "name": "to",
          "type": "address"
        },
        {
          "internalType": "euint64",
          "name": "amount",
          "type": "bytes32"
        }
      ],
      "name": "confidentialTransfer",
      "outputs": [
        {
          "internalType": "euint64",
          "name": "",
          "type": "bytes32"
        }
      ],
      "stateMutability": "nonpayable",
      "type": "function"
    },
    {
      "inputs": [
        {
          "internalType": "address",
          "name": "to",
          "type": "address"
        },
        {
          "internalType": "euint64",
          "name": "amount",
          "type": "bytes32"
        },
        {
          "internalType": "bytes",
          "name": "data",
          "type": "bytes"
        }
      ],
      "name": "confidentialTransferAndCall",
      "outputs": [
        {
          "internalType": "euint64",
          "name": "transferred",
          "type": "bytes32"
        }
      ],
      "stateMutability": "nonpayable",
      "type": "function"
    },
    {
      "inputs": [
        {
          "internalType": "address",
          "name": "to",
          "type": "address"
        },
        {
          "internalType": "externalEuint64",
          "name": "encryptedAmount",
          "type": "bytes32"
        },
        {
          "internalType": "bytes",
          "name": "inputProof",
          "type": "bytes"
        },
        {
          "internalType": "bytes",
          "name": "data",
          "type": "bytes"
        }
      ],
      "name": "confidentialTransferAndCall",
      "outputs": [
        {
          "internalType": "euint64",
          "name": "transferred",
          "type": "bytes32"
        }
      ],
      "stateMutability": "nonpayable",
      "type": "function"
    },
    {
      "inputs": [
        {
          "internalType": "address",
          "name": "from",
          "type": "address"
        },
        {
          "internalType": "address",
          "name": "to",
          "type": "address"
        },
        {
          "internalType": "externalEuint64",
          "name": "encryptedAmount",
          "type": "bytes32"
        },
        {
          "internalType": "bytes",
          "name": "inputProof",
          "type": "bytes"
        }
      ],
      "name": "confidentialTransferFrom",
      "outputs": [
        {
          "internalType": "euint64",
          "name": "transferred",
          "type": "bytes32"
        }
      ],
      "stateMutability": "nonpayable",
      "type": "function"
    },
    {
      "inputs": [
        {
          "internalType": "address",
          "name": "from",
          "type": "address"
        },
        {
          "internalType": "address",
          "name": "to",
          "type": "address"
        },
        {
          "internalType": "euint64",
          "name": "amount",
          "type": "bytes32"
        }
      ],
      "name": "confidentialTransferFrom",
      "outputs": [
        {
          "internalType": "euint64",
          "name": "transferred",
          "type": "bytes32"
        }
      ],
      "stateMutability": "nonpayable",
      "type": "function"
    },
    {
      "inputs": [
        {
          "internalType": "address",
          "name": "from",
          "type": "address"
        },
        {
          "internalType": "address",
          "name": "to",
          "type": "address"
        },
        {
          "internalType": "externalEuint64",
          "name": "encryptedAmount",
          "type": "bytes32"
        },
        {
          "internalType": "bytes",
          "name": "inputProof",
          "type": "bytes"
        },
        {
          "internalType": "bytes",
          "name": "data",
          "type": "bytes"
        }
      ],
      "name": "confidentialTransferFromAndCall",
      "outputs": [
        {
          "internalType": "euint64",
          "name": "transferred",
          "type": "bytes32"
        }
      ],
      "stateMutability": "nonpayable",
      "type": "function"
    },
    {
      "inputs": [
        {
          "internalType": "address",
          "name": "from",
          "type": "address"
        },
        {
          "internalType": "address",
          "name": "to",
          "type": "address"
        },
        {
          "internalType": "euint64",
          "name": "amount",
          "type": "bytes32"
        },
        {
          "internalType": "bytes",
          "name": "data",
          "type": "bytes"
        }
      ],
      "name": "confidentialTransferFromAndCall",
      "outputs": [
        {
          "internalType": "euint64",
          "name": "transferred",
          "type": "bytes32"
        }
      ],
      "stateMutability": "nonpayable",
      "type": "function"
    },
    {
      "inputs": [],
      "name": "decimals",
      "outputs": [
        {
          "internalType": "uint8",
          "name": "",
          "type": "uint8"
        }
      ],
      "stateMutability": "view",
      "type": "function"
    },
    {
      "inputs": [
        {
          "internalType": "euint64",
          "name": "encryptedAmount",
          "type": "bytes32"
        }
      ],
      "name": "discloseEncryptedAmount",
      "outputs": [],
      "stateMutability": "nonpayable",
      "type": "function"
    },
    {
      "inputs": [
        {
          "internalType": "uint256",
          "name": "requestId",
          "type": "uint256"
        },
        {
          "internalType": "uint64",
          "name": "amount",
          "type": "uint64"
        },
        {
          "internalType": "bytes[]",
          "name": "signatures",
          "type": "bytes[]"
        }
      ],
      "name": "finalizeDiscloseEncryptedAmount",
      "outputs": [],
      "stateMutability": "nonpayable",
      "type": "function"
    },
    {
      "inputs": [
        {
          "internalType": "address",
          "name": "user",
          "type": "address"
        }
      ],
      "name": "getEncryptedBalance",
      "outputs": [
        {
          "internalType": "euint64",
          "name": "",
          "type": "bytes32"
        }
      ],
      "stateMutability": "view",
      "type": "function"
    },
    {
      "inputs": [
        {
          "internalType": "address",
          "name": "holder",
          "type": "address"
        },
        {
          "internalType": "address",
          "name": "spender",
          "type": "address"
        }
      ],
      "name": "isOperator",
      "outputs": [
        {
          "internalType": "bool",
          "name": "",
          "type": "bool"
        }
      ],
      "stateMutability": "view",
      "type": "function"
    },
    {
      "inputs": [],
      "name": "name",
      "outputs": [
        {
          "internalType": "string",
          "name": "",
          "type": "string"
        }
      ],
      "stateMutability": "view",
      "type": "function"
    },
    {
      "inputs": [],
      "name": "owner",
      "outputs": [
        {
          "internalType": "address",
          "name": "",
          "type": "address"
        }
      ],
      "stateMutability": "view",
      "type": "function"
    },
    {
      "inputs": [],
      "name": "rate",
      "outputs": [
        {
          "internalType": "uint256",
          "name": "",
          "type": "uint256"
        }
      ],
      "stateMutability": "pure",
      "type": "function"
    },
    {
      "inputs": [],
      "name": "renounceOwnership",
      "outputs": [],
      "stateMutability": "nonpayable",
      "type": "function"
    },
    {
      "inputs": [
        {
          "internalType": "address",
          "name": "operator",
          "type": "address"
        },
        {
          "internalType": "uint48",
          "name": "until",
          "type": "uint48"
        }
      ],
      "name": "setOperator",
      "outputs": [],
      "stateMutability": "nonpayable",
      "type": "function"
    },
    {
      "inputs": [],
      "name": "symbol",
      "outputs": [
        {
          "internalType": "string",
          "name": "",
          "type": "string"
        }
      ],
      "stateMutability": "view",
      "type": "function"
    },
    {
      "inputs": [],
      "name": "tokenURI",
      "outputs": [
        {
          "internalType": "string",
          "name": "",
          "type": "string"
        }
      ],
      "stateMutability": "view",
      "type": "function"
    },
    {
      "inputs": [
        {
          "internalType": "address",
          "name": "newOwner",
          "type": "address"
        }
      ],
      "name": "transferOwnership",
      "outputs": [],
      "stateMutability": "nonpayable",
      "type": "function"
    },
    {
      "inputs": [],
      "name": "underlying",
      "outputs": [
        {
          "internalType": "address",
          "name": "",
          "type": "address"
        }
      ],
      "stateMutability": "pure",
      "type": "function"
    },
    {
      "inputs": [
        {
          "internalType": "externalEuint64",
          "name": "amountInput",
          "type": "bytes32"
        },
        {
          "internalType": "bytes",
          "name": "inputProof",
          "type": "bytes"
        }
      ],
      "name": "unwrap",
      "outputs": [],
      "stateMutability": "nonpayable",
      "type": "function"
    },
    {
      "inputs": [],
      "name": "wrap",
      "outputs": [],
      "stateMutability": "payable",
      "type": "function"
    }
  ],
  "transactionHash": "0x6137f2d3a57aec1b2e86b1044639501b42a09c75e0e9bfcd1e091d3ef2d55bfa",
  "args": [
    "0xcC5C64e2Ff52d9b2D95B5dc9d4B1e9Edf232693B",
    "Confidential WETH",
    "cWETH",
    "https://nexora.com/metadata/cweth"
  ],
  "numDeployments": 6,
  "solcInputHash": "d32d93f73c597c4d8d4915b60e44de61",
  "bytecode": "0x608060405234801561000f575f5ffd5b50604051612f6a380380612f6a83398101604081905261002e9161034a565b83838383600461003e848261047c565b50600561004b838261047c565b506006610058828261047c565b5050506001600160a01b038216905061008a57604051631e4fbdf760e01b81525f600482015260240160405180910390fd5b6100938161025c565b5061020e610132604080516080810182525f808252602082018190529181018290526060810191909152506040805160808101825273687820221192c5b662b25367f70076a37bc79b6c815273848b0066793bcc60346da1f49049357399b8d5956020820152731364cbbf2cdf5032c47d8226a6f6fbd2afcdacac9181019190915273bc91f3dad1a5f19f8390c400196e58073b6a0bc4606082015290565b80517fed8d60e34876f751cc8b014c560745351147d9de11b9347c854e881b128ea60080546001600160a01b03199081166001600160a01b039384161790915560208301517fed8d60e34876f751cc8b014c560745351147d9de11b9347c854e881b128ea6018054831691841691909117905560408301517fed8d60e34876f751cc8b014c560745351147d9de11b9347c854e881b128ea6028054831691841691909117905560608301517fed8d60e34876f751cc8b014c560745351147d9de11b9347c854e881b128ea6038054909216921691909117905550565b7f5ea69329017273582817d320489fbd94f775580e90c092699ca6f3d12fdf7d0080546001600160a01b03191673a02cda4ca3a71d7c46997716f4283aa851c2881217905550505050610536565b600780546001600160a01b038381166001600160a01b0319831681179093556040519116919082907f8be0079c531659141344cd1fd0a4f28419497f9722a3daafe3b4186f6b6457e0905f90a35050565b634e487b7160e01b5f52604160045260245ffd5b5f82601f8301126102d0575f5ffd5b81516001600160401b038111156102e9576102e96102ad565b604051601f8201601f19908116603f011681016001600160401b0381118282101715610317576103176102ad565b60405281815283820160200185101561032e575f5ffd5b8160208501602083015e5f918101602001919091529392505050565b5f5f5f5f6080858703121561035d575f5ffd5b84516001600160a01b0381168114610373575f5ffd5b60208601519094506001600160401b0381111561038e575f5ffd5b61039a878288016102c1565b604087015190945090506001600160401b038111156103b7575f5ffd5b6103c3878288016102c1565b606087015190935090506001600160401b038111156103e0575f5ffd5b6103ec878288016102c1565b91505092959194509250565b600181811c9082168061040c57607f821691505b60208210810361042a57634e487b7160e01b5f52602260045260245ffd5b50919050565b601f82111561047757805f5260205f20601f840160051c810160208510156104555750805b601f840160051c820191505b81811015610474575f8155600101610461565b50505b505050565b81516001600160401b03811115610495576104956102ad565b6104a9816104a384546103f8565b84610430565b6020601f8211600181146104db575f83156104c45750848201515b5f19600385901b1c1916600184901b178455610474565b5f84815260208120601f198516915b8281101561050a57878501518255602094850194600190920191016104ea565b508482101561052757868401515f19600387901b60f8161c191681555b50505050600190811b01905550565b612a27806105435f395ff3fe6080604052600436106101af575f3560e01c80638da5cb5b116100e7578063d4febb9611610087578063e064b9bb11610062578063e064b9bb146104a5578063e2229282146104c4578063eb3155b5146104e3578063f2fde38b14610502575f5ffd5b8063d4febb9614610448578063dcd56a4114610467578063de64211914610486575f5ffd5b8063b6363cf2116100c2578063b6363cf2146103d3578063c535803c14610402578063c7b8a75e14610421578063d46eb11914610440575f5ffd5b80638da5cb5b1461037b57806395d89b4114610398578063ad5c4648146103ac575f5ffd5b8063402dc4e4116101525780635bebed7e1161012d5780635bebed7e146102ed5780636f307dc31461030c578063715018a6146103465780637279e2641461035c575f5ffd5b8063402dc4e41461029b578063537d3c50146102ba57806354095227146102d9575f5ffd5b8063313ce5671161018d578063313ce56714610219578063344ff1011461023457806334c45743146102685780633c130d9014610287575f5ffd5b806306fdde03146101b35780632c4e722e146101dd5780632fb74e62146101fa575b5f5ffd5b3480156101be575f5ffd5b506101c7610521565b6040516101d49190612225565b60405180910390f35b3480156101e8575f5ffd5b5060015b6040519081526020016101d4565b348015610205575f5ffd5b506101ec610214366004612290565b6105b1565b348015610224575f5ffd5b50604051600681526020016101d4565b34801561023f575f5ffd5b506101ec61024e3660046122e6565b6001600160a01b03165f9081526020819052604090205490565b348015610273575f5ffd5b506101ec6102823660046122ff565b610604565b348015610292575f5ffd5b506101c76106ad565b3480156102a6575f5ffd5b506101ec6102b53660046122e6565b6106bc565b3480156102c5575f5ffd5b506101ec6102d4366004612290565b6106db565b3480156102e4575f5ffd5b506003546101ec565b3480156102f8575f5ffd5b506101ec610307366004612398565b61073d565b348015610317575f5ffd5b50737b79995e5f793a07bc00c21412e50ecae098e7f95b6040516001600160a01b0390911681526020016101d4565b348015610351575f5ffd5b5061035a61078f565b005b348015610367575f5ffd5b5061035a610376366004612405565b6107a2565b348015610386575f5ffd5b506007546001600160a01b031661032e565b3480156103a3575f5ffd5b506101c761082f565b3480156103b7575f5ffd5b5061032e737b79995e5f793a07bc00c21412e50ecae098e7f981565b3480156103de575f5ffd5b506103f26103ed366004612556565b61083e565b60405190151581526020016101d4565b34801561040d575f5ffd5b5061035a61041c36600461257e565b610890565b34801561042c575f5ffd5b506101ec61043b366004612595565b610946565b61035a6109e9565b348015610453575f5ffd5b5061035a6104623660046125ff565b610b73565b348015610472575f5ffd5b5061035a61048136600461263e565b610b82565b348015610491575f5ffd5b506101ec6104a0366004612686565b610bff565b3480156104b0575f5ffd5b506101ec6104bf366004612595565b610c5b565b3480156104cf575f5ffd5b5061035a6104de36600461257e565b610ce0565b3480156104ee575f5ffd5b506101ec6104fd36600461270f565b610f2b565b34801561050d575f5ffd5b5061035a61051c3660046122e6565b610fca565b60606004805461053090612749565b80601f016020809104026020016040519081016040528092919081815260200182805461055c90612749565b80156105a75780601f1061057e576101008083540402835291602001916105a7565b820191905f5260205f20905b81548152906001019060200180831161058a57829003601f168201915b5050505050905090565b5f6105fb33866105f68787878080601f0160208091040260200160405190810160405280939291908181526020018383808284375f9201919091525061100792505050565b611014565b95945050505050565b5f61060f883361083e565b8833909161064857604051631ae7729b60e11b81526001600160a01b039283166004820152911660248201526044015b60405180910390fd5b5050610695888861068e8989898080601f0160208091040260200160405190810160405280939291908181526020018383808284375f9201919091525061100792505050565b8686611092565b90506106a181336110e9565b50979650505050505050565b60606006805461053090612749565b6001600160a01b0381165f908152602081905260408120545b92915050565b5f6106e684336110fb565b843390916107195760405163118f6e5360e31b815260048101929092526001600160a01b0316602482015260440161063f565b50506107283386868686611092565b905061073481336110e9565b50949350505050565b5f61074882336110fb565b8233909161077b5760405163118f6e5360e31b815260048101929092526001600160a01b0316602482015260440161063f565b5050610788338484611014565b9392505050565b610797611106565b6107a05f611133565b565b6107ac838261119c565b5f8381526002602052604090205483816107dc57604051630ab5f57d60e01b815260040161063f91815260200190565b5060405167ffffffffffffffff8416815281907f83bbbc07896439e5d950a6cead04cbc676180af7a61cecf43f5296475057f5719060200160405180910390a25050505f90815260026020526040812055565b60606005805461053090612749565b5f816001600160a01b0316836001600160a01b031614806107885750506001600160a01b039182165f90815260016020908152604080832093909416825291909152205465ffffffffffff1642111590565b61089a81336110fb565b80156108ab57506108ab81306110fb565b813390916108de5760405163118f6e5360e31b815260048101929092526001600160a01b0316602482015260440161063f565b50506040805160018082528183019092525f916020808301908036833701905050905081815f8151811061091457610914612781565b60209081029190910101525f61093182631c9e789960e21b611203565b5f908152600260205260409020929092555050565b5f61095184336110fb565b843390916109845760405163118f6e5360e31b815260048101929092526001600160a01b0316602482015260440161063f565b5050610990863361083e565b863390916109c457604051631ae7729b60e11b81526001600160a01b0392831660048201529116602482015260440161063f565b50506109d38686868686611092565b90506109df81336110e9565b5095945050505050565b5f3411610a445760405162461bcd60e51b815260206004820152602360248201527f436f6e666964656e7469616c574554483a2043616e6e6f74207772617020302060448201526208aa8960eb1b606482015260840161063f565b60408051600481526024810182526020810180516001600160e01b0316630d0e30db60e41b17905290515f91737b79995e5f793a07bc00c21412e50ecae098e7f9913491610a9191612795565b5f6040518083038185875af1925050503d805f8114610acb576040519150601f19603f3d011682016040523d82523d5f602084013e610ad0565b606091505b5050905080610b2f5760405162461bcd60e51b815260206004820152602560248201527f436f6e666964656e7469616c574554483a2057455448206465706f7369742066604482015264185a5b195960da1b606482015260840161063f565b3480610b4333610b3e8361120f565b611225565b5060405133907f9cb777e5cc5a3050cb652a50361cf4e165e4706a58b64a46634d986cd91d4de1905f90a2505050565b610b7e338383611266565b5050565b5f610bc28484848080601f0160208091040260200160405190810160405280939291908181526020018383808284375f9201919091525061100792505050565b9050610bce33826112dd565b5060405133907fdbd0a6ec4d3effbfc17269b7a8674c757e5deb8c9d6ff84afe1b5b64c590ac0c905f90a250505050565b5f610c44338861068e8989898080601f0160208091040260200160405190810160405280939291908181526020018383808284375f9201919091525061100792505050565b9050610c5081336110e9565b509695505050505050565b5f610c66863361083e565b86339091610c9a57604051631ae7729b60e11b81526001600160a01b0392831660048201529116602482015260440161063f565b50506109d386866105f68787878080601f0160208091040260200160405190810160405280939291908181526020018383808284375f9201919091525061100792505050565b5f8111610d555760405162461bcd60e51b815260206004820152602560248201527f436f6e666964656e7469616c574554483a2043616e6e6f7420756e777261702060448201527f3020455448000000000000000000000000000000000000000000000000000000606482015260840161063f565b610d74737b79995e5f793a07bc00c21412e50ecae098e7f9808361131e565b604051602481018290525f90737b79995e5f793a07bc00c21412e50ecae098e7f99060440160408051601f198184030181529181526020820180516001600160e01b0316632e1a7d4d60e01b17905251610dce9190612795565b5f604051808303815f865af19150503d805f8114610e07576040519150601f19603f3d011682016040523d82523d5f602084013e610e0c565b606091505b5050905080610e835760405162461bcd60e51b815260206004820152602660248201527f436f6e666964656e7469616c574554483a20574554482077697468647261772060448201527f6661696c65640000000000000000000000000000000000000000000000000000606482015260840161063f565b6040515f90339084908381818185875af1925050503d805f8114610ec2576040519150601f19603f3d011682016040523d82523d5f602084013e610ec7565b606091505b5050905080610f265760405162461bcd60e51b815260206004820152602560248201527f436f6e666964656e7469616c574554483a20455448207472616e736665722066604482015264185a5b195960da1b606482015260840161063f565b505050565b5f610f3682336110fb565b82339091610f695760405163118f6e5360e31b815260048101929092526001600160a01b0316602482015260440161063f565b5050610f75843361083e565b84339091610fa957604051631ae7729b60e11b81526001600160a01b0392831660048201529116602482015260440161063f565b5050610fb6848484611014565b9050610fc281336110e9565b509392505050565b610fd2611106565b6001600160a01b038116610ffb57604051631e4fbdf760e01b81525f600482015260240161063f565b61100481611133565b50565b5f61078883836005611370565b5f806001600160a01b03851661104957604051631a9bbf8b60e11b81526001600160a01b03909116600482015260240161063f565b505f6001600160a01b03841661107e57604051636e41946d60e11b81526001600160a01b03909116600482015260240161063f565b5061108a84848461147d565b949350505050565b5f5f61109f878787611014565b90505f6110b033898985898961165a565b90505f6110d0888a6110cb856110c55f61120f565b8861175e565b61147d565b90506110dc838261176a565b9998505050505050505050565b5f6110f48383611798565b5090919050565b5f610788838361180c565b6007546001600160a01b031633146107a05760405163118cdaa760e01b815233600482015260240161063f565b600780546001600160a01b038381167fffffffffffffffffffffffff0000000000000000000000000000000000000000831681179093556040519116919082907f8be0079c531659141344cd1fd0a4f28419497f9722a3daafe3b4186f6b6457e0905f90a35050565b5f6111a683611890565b90505f6111b38284611961565b9050806111d35760405163cf6c44e960e01b815260040160405180910390fd5b60405184907f1af0453083661051f6e56e5c070792320652e612154bf9af8637bb1e7655b99d905f90a250505050565b5f61078883835f611a69565b5f6106d58267ffffffffffffffff166005611ba2565b5f806001600160a01b03841661125a57604051636e41946d60e11b81526001600160a01b03909116600482015260240161063f565b506107885f848461147d565b6001600160a01b038381165f81815260016020908152604080832094871680845294825291829020805465ffffffffffff191665ffffffffffff871690811790915591519182527f921a218a75d18e8ec5704851e6b234a85725b21a2521ce889622c35dedc1fa12910160405180910390a3505050565b5f806001600160a01b03841661131257604051631a9bbf8b60e11b81526001600160a01b03909116600482015260240161063f565b50610788835f8461147d565b604080516001600160a01b038416602482015260448082018490528251808303909101815260649091019091526020810180516001600160e01b031663a9059cbb60e01b179052610f26908490611c44565b7fed8d60e34876f751cc8b014c560745351147d9de11b9347c854e881b128ea6015460405163196d0b9b60e01b81525f915f5160206129fb5f395f51905f52916001600160a01b039091169063196d0b9b906113d69088903390899089906004016127df565b6020604051808303815f875af11580156113f2573d5f5f3e3d5ffd5b505050506040513d601f19601f820116820180604052508101906114169190612815565b8154604051630f8e573b60e21b8152600481018390523360248201529193506001600160a01b031690633e395cec906044015f604051808303815f87803b15801561145f575f5ffd5b505af1158015611471573d5f5f3e3d5ffd5b50505050509392505050565b5f80806001600160a01b0386166114b35761149a60035485611cb6565b90925090506114a881611d00565b506003819055611537565b6001600160a01b0386165f9081526020819052604090205486816114f657604051636b8830d760e11b81526001600160a01b03909116600482015260240161063f565b506115018186611d0f565b909350915061150f82611d00565b5061151a8288611d3a565b50506001600160a01b0386165f9081526020819052604090208190555b61154a82856115455f61120f565b61175e565b92506001600160a01b03851661157c576115666003548461176a565b905061157181611d00565b5060038190556115d0565b6001600160a01b0385165f9081526020819052604090205461159e9084611d45565b90506115a981611d00565b506115b48186611d3a565b506001600160a01b0385165f9081526020819052604090208190555b6001600160a01b038616156115eb576115e98387611d3a565b505b6001600160a01b03851615611606576116048386611d3a565b505b61160f83611d00565b5082856001600160a01b0316876001600160a01b03167f67500e8d0ed826d2194f514dd0d8124f35648ab6e3fb5e6ed867134cffe661e960405160405180910390a450509392505050565b5f6001600160a01b0385163b15611747576040516346083bfd60e01b81526001600160a01b038616906346083bfd9061169f908a908a9089908990899060040161282c565b6020604051808303815f875af19250505080156116d9575060408051601f3d908101601f191682019092526116d691810190612815565b60015b611740573d808015611706576040519150601f19603f3d011682016040523d82523d5f602084013e61170b565b606091505b5080515f0361173857604051636e41946d60e11b81526001600160a01b038716600482015260240161063f565b805181602001fd5b9050611754565b6117516001611d73565b90505b9695505050505050565b5f61108a848484611d8e565b5f8261177c576117795f61120f565b92505b8161178d5761178a5f61120f565b91505b61078883835f611e1b565b5f5160206129fb5f395f51905f528054604051630f8e573b60e21b8152600481018590526001600160a01b03848116602483015290911690633e395cec906044015b5f604051808303815f87803b1580156117f1575f5ffd5b505af1158015611803573d5f5f3e3d5ffd5b50505050505050565b5f805f5160206129fb5f395f51905f5280546040516382027b6d60e01b8152600481018790526001600160a01b0386811660248301529293509116906382027b6d90604401602060405180830381865afa15801561186c573d5f5f3e3d5ffd5b505050506040513d601f19601f8201168201806040525081019061108a9190612881565b5f8181527f5ea69329017273582817d320489fbd94f775580e90c092699ca6f3d12fdf7d0260205260408120546060917f5ea69329017273582817d320489fbd94f775580e90c092699ca6f3d12fdf7d009190036119015760405163d66ca67560e01b815260040160405180910390fd5b5f8381526002820160209081526040918290208054835181840281018401909452808452909183018282801561195457602002820191905f5260205f20905b815481526020019060010190808311611940575b5050505050915050919050565b5f60248161196e85611ee1565b90505f8167ffffffffffffffff81111561198a5761198a6123c0565b6040519080825280601f01601f1916602001820160405280156119b4576020820181803683370190505b509050818360208301377fed8d60e34876f751cc8b014c560745351147d9de11b9347c854e881b128ea60254604051632c027b1360e21b81525f5160206129fb5f395f51905f52916001600160a01b03169063b009ec4c90611a1e908a9086908b906004016128da565b6020604051808303815f875af1158015611a3a573d5f5f3e3d5ffd5b505050506040513d601f19601f82011682018060405250810190611a5e9190612881565b979650505050505050565b7f5ea69329017273582817d320489fbd94f775580e90c092699ca6f3d12fdf7d01545f5160206129fb5f395f51905f528054604051637d6e912360e11b81527f5ea69329017273582817d320489fbd94f775580e90c092699ca6f3d12fdf7d0092916001600160a01b03169063fadd224690611ae9908990600401612964565b5f604051808303815f87803b158015611b00575f5ffd5b505af1158015611b12573d5f5f3e3d5ffd5b50508354604051633263b83b60e01b81526001600160a01b039091169250633263b83b91508690611b4b9087908b908b90600401612976565b5f604051808303818588803b158015611b62575f5ffd5b505af1158015611b74573d5f5f3e3d5ffd5b5050505050611b838387611f8e565b600182018054905f611b94836129bb565b919050555050509392505050565b7fed8d60e34876f751cc8b014c560745351147d9de11b9347c854e881b128ea60154604051639cd07acb60e01b81525f915f5160206129fb5f395f51905f52916001600160a01b0390911690639cd07acb90611c0490879087906004016129d3565b6020604051808303815f875af1158015611c20573d5f5f3e3d5ffd5b505050506040513d601f19601f8201168201806040525081019061108a9190612815565b5f5f60205f8451602086015f885af180611c63576040513d5f823e3d81fd5b50505f513d91508115611c7a578060011415611c87565b6001600160a01b0384163b155b15611cb057604051635274afe760e01b81526001600160a01b038516600482015260240161063f565b50505050565b5f8083611cd157611cc76001611d73565b9150829050611cf9565b5f611cdc8585611d45565b9050611ce8818661201b565b9250611cf583828761175e565b9150505b9250929050565b5f611d0b8230612049565b5090565b5f5f611d1b848461201b565b9150611d3182611d2b868661176a565b8661175e565b90509250929050565b5f6110f48383612049565b5f82611d5757611d545f61120f565b92505b81611d6857611d655f61120f565b91505b61078883835f61208f565b5f6106d582611d82575f611d85565b60015b60ff165f611ba2565b5f805f5160206129fb5f395f51905f526001810154604051637702dcff60e01b81526004810188905260248101879052604481018690529192506001600160a01b031690637702dcff906064016020604051808303815f875af1158015611df7573d5f5f3e3d5ffd5b505050506040513d601f19601f820116820180604052508101906105fb9190612815565b5f5f8215611e2e5750600160f81b611e31565b505f5b7fed8d60e34876f751cc8b014c560745351147d9de11b9347c854e881b128ea601546040516303056db360e31b815260048101879052602481018690526001600160f81b0319831660448201525f5160206129fb5f395f51905f52916001600160a01b03169063182b6d98906064015b6020604051808303815f875af1158015611ebd573d5f5f3e3d5ffd5b505050506040513d601f19601f820116820180604052508101906117549190612815565b80515f9081805b82811015611f82575f858281518110611f0357611f03612781565b6020026020010151601e60208110611f1d57611f1d612781565b1a6053811115611f2f57611f2f6127ab565b90506009816053811115611f4557611f456127ab565b60ff161015611f6057611f596020846129e7565b9250611f79565b60405163ce54a8d160e01b815260040160405180910390fd5b50600101611ee8565b5061108a6020826129e7565b5f8281527f5ea69329017273582817d320489fbd94f775580e90c092699ca6f3d12fdf7d0260205260409020547f5ea69329017273582817d320489fbd94f775580e90c092699ca6f3d12fdf7d009015611ffb57604051633f06d22b60e01b815260040160405180910390fd5b5f83815260028201602090815260409091208351611cb0928501906121a3565b5f8261202d5761202a5f61120f565b92505b8161203e5761203b5f61120f565b91505b61078883835f612119565b5f5160206129fb5f395f51905f528054604051635ca4b5b160e11b8152600481018590526001600160a01b0384811660248301529091169063b9496b62906044016117da565b5f5f82156120a25750600160f81b6120a5565b505f5b7fed8d60e34876f751cc8b014c560745351147d9de11b9347c854e881b128ea6015460405163022f65e760e31b815260048101879052602481018690526001600160f81b0319831660448201525f5160206129fb5f395f51905f52916001600160a01b03169063117b2f3890606401611ea1565b5f5f821561212c5750600160f81b61212f565b505f5b7fed8d60e34876f751cc8b014c560745351147d9de11b9347c854e881b128ea60154604051631391547f60e01b815260048101879052602481018690526001600160f81b0319831660448201525f5160206129fb5f395f51905f52916001600160a01b031690631391547f90606401611ea1565b828054828255905f5260205f209081019282156121dc579160200282015b828111156121dc5782518255916020019190600101906121c1565b50611d0b9291505b80821115611d0b575f81556001016121e4565b5f81518084528060208401602086015e5f602082860101526020601f19601f83011685010191505092915050565b602081525f61078860208301846121f7565b80356001600160a01b038116811461224d575f5ffd5b919050565b5f5f83601f840112612262575f5ffd5b50813567ffffffffffffffff811115612279575f5ffd5b602083019150836020828501011115611cf9575f5ffd5b5f5f5f5f606085870312156122a3575f5ffd5b6122ac85612237565b935060208501359250604085013567ffffffffffffffff8111156122ce575f5ffd5b6122da87828801612252565b95989497509550505050565b5f602082840312156122f6575f5ffd5b61078882612237565b5f5f5f5f5f5f5f60a0888a031215612315575f5ffd5b61231e88612237565b965061232c60208901612237565b955060408801359450606088013567ffffffffffffffff81111561234e575f5ffd5b61235a8a828b01612252565b909550935050608088013567ffffffffffffffff811115612379575f5ffd5b6123858a828b01612252565b989b979a50959850939692959293505050565b5f5f604083850312156123a9575f5ffd5b6123b283612237565b946020939093013593505050565b634e487b7160e01b5f52604160045260245ffd5b604051601f8201601f1916810167ffffffffffffffff811182821017156123fd576123fd6123c0565b604052919050565b5f5f5f60608486031215612417575f5ffd5b83359250602084013567ffffffffffffffff81168114612435575f5ffd5b9150604084013567ffffffffffffffff811115612450575f5ffd5b8401601f81018613612460575f5ffd5b803567ffffffffffffffff81111561247a5761247a6123c0565b8060051b61248a602082016123d4565b918252602081840181019290810190898411156124a5575f5ffd5b6020850192505b8383101561254757823567ffffffffffffffff8111156124ca575f5ffd5b8501603f81018b136124da575f5ffd5b602081013567ffffffffffffffff8111156124f7576124f76123c0565b61250a601f8201601f19166020016123d4565b8181526040838301018d101561251e575f5ffd5b816040840160208301375f602083830101528085525050506020820191506020830192506124ac565b80955050505050509250925092565b5f5f60408385031215612567575f5ffd5b61257083612237565b9150611d3160208401612237565b5f6020828403121561258e575f5ffd5b5035919050565b5f5f5f5f5f608086880312156125a9575f5ffd5b6125b286612237565b94506125c060208701612237565b935060408601359250606086013567ffffffffffffffff8111156125e2575f5ffd5b6125ee88828901612252565b969995985093965092949392505050565b5f5f60408385031215612610575f5ffd5b61261983612237565b9150602083013565ffffffffffff81168114612633575f5ffd5b809150509250929050565b5f5f5f60408486031215612650575f5ffd5b83359250602084013567ffffffffffffffff81111561266d575f5ffd5b61267986828701612252565b9497909650939450505050565b5f5f5f5f5f5f6080878903121561269b575f5ffd5b6126a487612237565b955060208701359450604087013567ffffffffffffffff8111156126c6575f5ffd5b6126d289828a01612252565b909550935050606087013567ffffffffffffffff8111156126f1575f5ffd5b6126fd89828a01612252565b979a9699509497509295939492505050565b5f5f5f60608486031215612721575f5ffd5b61272a84612237565b925061273860208501612237565b929592945050506040919091013590565b600181811c9082168061275d57607f821691505b60208210810361277b57634e487b7160e01b5f52602260045260245ffd5b50919050565b634e487b7160e01b5f52603260045260245ffd5b5f82518060208501845e5f920191825250919050565b634e487b7160e01b5f52602160045260245ffd5b605481106127db57634e487b7160e01b5f52602160045260245ffd5b9052565b8481526001600160a01b0384166020820152608060408201525f61280660808301856121f7565b90506105fb60608301846127bf565b5f60208284031215612825575f5ffd5b5051919050565b6001600160a01b03861681526001600160a01b038516602082015283604082015260806060820152816080820152818360a08301375f81830160a090810191909152601f909201601f19160101949350505050565b5f60208284031215612891575f5ffd5b81518015158114610788575f5ffd5b5f8151808452602084019350602083015f5b828110156128d05781518652602095860195909101906001016128b2565b5093949350505050565b606081525f6128ec60608301866128a0565b82810360208401526128fe81866121f7565b9050828103604084015280845180835260208301915060208160051b840101602087015f5b8381101561295557601f1986840301855261293f8383516121f7565b6020958601959093509190910190600101612923565b50909998505050505050505050565b602081525f61078860208301846128a0565b838152606060208201525f61298e60608301856128a0565b905063ffffffff60e01b83166040830152949350505050565b634e487b7160e01b5f52601160045260245ffd5b5f600182016129cc576129cc6129a7565b5060010190565b8281526040810161078860208301846127bf565b808201808211156106d5576106d56129a756feed8d60e34876f751cc8b014c560745351147d9de11b9347c854e881b128ea600a164736f6c634300081b000a",
  "devdoc": {
    "details": "Uses ETH -> WETH -> cWETH and cWETH -> WETH -> ETH flow",
    "errors": {
      "ConfidentialFungibleTokenInvalidGatewayRequest(uint256)": [
        {
          "details": "The given gateway request ID `requestId` is invalid."
        }
      ],
      "ConfidentialFungibleTokenInvalidReceiver(address)": [
        {
          "details": "The given receiver `receiver` is invalid for transfers."
        }
      ],
      "ConfidentialFungibleTokenInvalidSender(address)": [
        {
          "details": "The given sender `sender` is invalid for transfers."
        }
      ],
      "ConfidentialFungibleTokenUnauthorizedCaller(address)": [
        {
          "details": "The given caller `caller` is not authorized for the current operation."
        }
      ],
      "ConfidentialFungibleTokenUnauthorizedSpender(address,address)": [
        {
          "details": "The given holder `holder` is not authorized to spend on behalf of `spender`."
        }
      ],
      "ConfidentialFungibleTokenUnauthorizedUseOfEncryptedAmount(bytes32,address)": [
        {
          "details": "The caller `user` does not have access to the encrypted amount `amount`. NOTE: Try using the equivalent transfer function with an input proof."
        }
      ],
      "ConfidentialFungibleTokenZeroBalance(address)": [
        {
          "details": "The holder `holder` is trying to send tokens but has a balance of 0."
        }
      ],
      "OwnableInvalidOwner(address)": [
        {
          "details": "The owner is not a valid owner account. (eg. `address(0)`)"
        }
      ],
      "OwnableUnauthorizedAccount(address)": [
        {
          "details": "The caller account is not authorized to perform an operation."
        }
      ],
      "SafeERC20FailedOperation(address)": [
        {
          "details": "An operation with an ERC-20 token failed."
        }
      ]
    },
    "events": {
      "AmountDisclosed(bytes32,uint64)": {
        "details": "Emitted when an encrypted amount is disclosed. Accounts with access to the encrypted amount `encryptedAmount` that is also accessible to this contract should be able to disclose the amount. This functionality is implementation specific."
      },
      "ConfidentialTransfer(address,address,bytes32)": {
        "details": "Emitted when a confidential transfer is made from `from` to `to` of encrypted amount `amount`."
      },
      "OperatorSet(address,address,uint48)": {
        "details": "Emitted when the expiration timestamp for an operator `operator` is updated for a given `holder`. The operator may move any amount of tokens on behalf of the holder until the timestamp `until`."
      }
    },
    "kind": "dev",
    "methods": {
      "completeUnwrap(uint256)": {
        "details": "This function should be called after unwrap to actually send ETH",
        "params": {
          "amount": "The amount of ETH to send (must match the burned cWETH amount)"
        }
      },
      "confidentialBalanceOf(address)": {
        "details": "Returns the confidential balance of the account `account`."
      },
      "confidentialTotalSupply()": {
        "details": "Returns the confidential total supply of the token."
      },
      "confidentialTransfer(address,bytes32)": {
        "details": "Similar to {confidentialTransfer-address-externalEuint64-bytes} but without an input proof. The caller *must* already be allowed by ACL for the given `amount`."
      },
      "confidentialTransfer(address,bytes32,bytes)": {
        "details": "Transfers the encrypted amount `encryptedAmount` to `to` with the given input proof `inputProof`. Returns the encrypted amount that was actually transferred."
      },
      "confidentialTransferAndCall(address,bytes32,bytes)": {
        "details": "Similar to {confidentialTransfer-address-euint64} but with a callback to `to` after the transfer."
      },
      "confidentialTransferAndCall(address,bytes32,bytes,bytes)": {
        "details": "Similar to {confidentialTransfer-address-externalEuint64-bytes} but with a callback to `to` after the transfer. The callback is made to the {IConfidentialFungibleTokenReceiver-onConfidentialTransferReceived} function on the to address with the actual transferred amount (may differ from the given `encryptedAmount`) and the given data `data`."
      },
      "confidentialTransferFrom(address,address,bytes32)": {
        "details": "Similar to {confidentialTransferFrom-address-address-externalEuint64-bytes} but without an input proof. The caller *must* be already allowed by ACL for the given `amount`."
      },
      "confidentialTransferFrom(address,address,bytes32,bytes)": {
        "details": "Transfers the encrypted amount `encryptedAmount` from `from` to `to` with the given input proof `inputProof`. `msg.sender` must be either `from` or an operator for `from`. Returns the encrypted amount that was actually transferred."
      },
      "confidentialTransferFromAndCall(address,address,bytes32,bytes)": {
        "details": "Similar to {confidentialTransferFrom-address-address-euint64} but with a callback to `to` after the transfer."
      },
      "confidentialTransferFromAndCall(address,address,bytes32,bytes,bytes)": {
        "details": "Similar to {confidentialTransferFrom-address-address-externalEuint64-bytes} but with a callback to `to` after the transfer."
      },
      "decimals()": {
        "details": "Returns the number of decimals of the token. Recommended to be 6."
      },
      "discloseEncryptedAmount(bytes32)": {
        "details": "Discloses an encrypted amount `encryptedAmount` publicly via an {IConfidentialFungibleToken-AmountDisclosed} event. The caller and this contract must be authorized to use the encrypted amount on the ACL. NOTE: This is an asynchronous operation where the actual decryption happens off-chain and {finalizeDiscloseEncryptedAmount} is called with the result."
      },
      "finalizeDiscloseEncryptedAmount(uint256,uint64,bytes[])": {
        "details": "Finalizes a disclose encrypted amount request."
      },
      "getEncryptedBalance(address)": {
        "details": "Required by the dashboard to display encrypted balances",
        "params": {
          "user": "The user address to get balance for"
        },
        "returns": {
          "_0": "The encrypted balance as euint64"
        }
      },
      "isOperator(address,address)": {
        "details": "Returns true if `spender` is currently an operator for `holder`."
      },
      "name()": {
        "details": "Returns the name of the token."
      },
      "owner()": {
        "details": "Returns the address of the current owner."
      },
      "rate()": {
        "returns": {
          "_0": "The conversion rate"
        }
      },
      "renounceOwnership()": {
        "details": "Leaves the contract without owner. It will not be possible to call `onlyOwner` functions. Can only be called by the current owner. NOTE: Renouncing ownership will leave the contract without an owner, thereby disabling any functionality that is only available to the owner."
      },
      "setOperator(address,uint48)": {
        "details": "Sets `operator` as an operator for `holder` until the timestamp `until`. NOTE: An operator may transfer any amount of tokens on behalf of a holder while approved."
      },
      "symbol()": {
        "details": "Returns the symbol of the token."
      },
      "tokenURI()": {
        "details": "Returns the token URI."
      },
      "transferOwnership(address)": {
        "details": "Transfers ownership of the contract to a new account (`newOwner`). Can only be called by the current owner."
      },
      "underlying()": {
        "returns": {
          "_0": "The WETH token address"
        }
      },
      "unwrap(bytes32,bytes)": {
        "details": "Burns cWETH, unwraps WETH to ETH, sends ETH to user",
        "params": {
          "amountInput": "The encrypted amount to unwrap",
          "inputProof": "The proof for the encrypted amount"
        }
      },
      "wrap()": {
        "details": "User sends ETH, contract wraps to WETH, then mints cWETH"
      }
    },
    "title": "Confidential WETH (cWETH) - OpenZeppelin Pattern",
    "version": 1
  },
  "userdoc": {
    "errors": {
      "HandlesAlreadySavedForRequestID()": [
        {
          "notice": "Returned if some handles were already saved for corresponding ID."
        }
      ],
      "InvalidKMSSignatures()": [
        {
          "notice": "Returned if the returned KMS signatures are not valid."
        }
      ],
      "NoHandleFoundForRequestID()": [
        {
          "notice": "Returned if there was not handle found for the requested ID."
        }
      ],
      "UnsupportedHandleType()": [
        {
          "notice": "Returned if the requested handle to be decrypted is not of a supported type."
        }
      ]
    },
    "events": {
      "DecryptionFulfilled(uint256)": {
        "notice": "This event is emitted when requested decryption has been fulfilled."
      }
    },
    "kind": "user",
    "methods": {
      "completeUnwrap(uint256)": {
        "notice": "Complete the unwrap process by sending ETH"
      },
      "getEncryptedBalance(address)": {
        "notice": "Get encrypted balance for a user"
      },
      "rate()": {
        "notice": "Get the conversion rate (1:1 for ETH:WETH:cWETH)"
      },
      "underlying()": {
        "notice": "Get the underlying WETH token"
      },
      "unwrap(bytes32,bytes)": {
        "notice": "Unwrap cWETH to ETH (cWETH -> WETH -> ETH)"
      },
      "wrap()": {
        "notice": "Wrap ETH to cWETH (ETH -> WETH -> cWETH)"
      }
    },
    "notice": "ERC7984 implementation for confidential WETH following OpenZeppelin patterns",
    "version": 1
  },
  "storageLayout": {
    "storage": [
      {
        "astId": 39365,
        "contract": "contracts/ConfidentialWETH.sol:ConfidentialWETH",
        "label": "_balances",
        "offset": 0,
        "slot": "0",
        "type": "t_mapping(t_address,t_userDefinedValueType(euint64)42335)"
      },
      {
        "astId": 39371,
        "contract": "contracts/ConfidentialWETH.sol:ConfidentialWETH",
        "label": "_operators",
        "offset": 0,
        "slot": "1",
        "type": "t_mapping(t_address,t_mapping(t_address,t_uint48))"
      },
      {
        "astId": 39376,
        "contract": "contracts/ConfidentialWETH.sol:ConfidentialWETH",
        "label": "_requestHandles",
        "offset": 0,
        "slot": "2",
        "type": "t_mapping(t_uint256,t_userDefinedValueType(euint64)42335)"
      },
      {
        "astId": 39379,
        "contract": "contracts/ConfidentialWETH.sol:ConfidentialWETH",
        "label": "_totalSupply",
        "offset": 0,
        "slot": "3",
        "type": "t_userDefinedValueType(euint64)42335"
      },
      {
        "astId": 39381,
        "contract": "contracts/ConfidentialWETH.sol:ConfidentialWETH",
        "label": "_name",
        "offset": 0,
        "slot": "4",
        "type": "t_string_storage"
      },
      {
        "astId": 39383,
        "contract": "contracts/ConfidentialWETH.sol:ConfidentialWETH",
        "label": "_symbol",
        "offset": 0,
        "slot": "5",
        "type": "t_string_storage"
      },
      {
        "astId": 39385,
        "contract": "contracts/ConfidentialWETH.sol:ConfidentialWETH",
        "label": "_tokenURI",
        "offset": 0,
        "slot": "6",
        "type": "t_string_storage"
      },
      {
        "astId": 40645,
        "contract": "contracts/ConfidentialWETH.sol:ConfidentialWETH",
        "label": "_owner",
        "offset": 0,
        "slot": "7",
        "type": "t_address"
      }
    ],
    "types": {
      "t_address": {
        "encoding": "inplace",
        "label": "address",
        "numberOfBytes": "20"
      },
      "t_mapping(t_address,t_mapping(t_address,t_uint48))": {
        "encoding": "mapping",
        "key": "t_address",
        "label": "mapping(address => mapping(address => uint48))",
        "numberOfBytes": "32",
        "value": "t_mapping(t_address,t_uint48)"
      },
      "t_mapping(t_address,t_uint48)": {
        "encoding": "mapping",
        "key": "t_address",
        "label": "mapping(address => uint48)",
        "numberOfBytes": "32",
        "value": "t_uint48"
      },
      "t_mapping(t_address,t_userDefinedValueType(euint64)42335)": {
        "encoding": "mapping",
        "key": "t_address",
        "label": "mapping(address => euint64)",
        "numberOfBytes": "32",
        "value": "t_userDefinedValueType(euint64)42335"
      },
      "t_mapping(t_uint256,t_userDefinedValueType(euint64)42335)": {
        "encoding": "mapping",
        "key": "t_uint256",
        "label": "mapping(uint256 => euint64)",
        "numberOfBytes": "32",
        "value": "t_userDefinedValueType(euint64)42335"
      },
      "t_string_storage": {
        "encoding": "bytes",
        "label": "string",
        "numberOfBytes": "32"
      },
      "t_uint256": {
        "encoding": "inplace",
        "label": "uint256",
        "numberOfBytes": "32"
      },
      "t_uint48": {
        "encoding": "inplace",
        "label": "uint48",
        "numberOfBytes": "6"
      },
      "t_userDefinedValueType(euint64)42335": {
        "encoding": "inplace",
        "label": "euint64",
        "numberOfBytes": "32"
      }
    }
  }
}