{
  "address": "0xc5a75d90a561Da40a91657b60705C1fd984Ef76a",
  "abi": [
    {
      "inputs": [],
      "stateMutability": "nonpayable",
      "type": "constructor"
    },
    {
      "inputs": [
        {
          "internalType": "uint256",
          "name": "requestId",
          "type": "uint256"
        }
      ],
      "name": "ConfidentialFungibleTokenInvalidGatewayRequest",
      "type": "error"
    },
    {
      "inputs": [
        {
          "internalType": "address",
          "name": "receiver",
          "type": "address"
        }
      ],
      "name": "ConfidentialFungibleTokenInvalidReceiver",
      "type": "error"
    },
    {
      "inputs": [
        {
          "internalType": "address",
          "name": "sender",
          "type": "address"
        }
      ],
      "name": "ConfidentialFungibleTokenInvalidSender",
      "type": "error"
    },
    {
      "inputs": [
        {
          "internalType": "address",
          "name": "caller",
          "type": "address"
        }
      ],
      "name": "ConfidentialFungibleTokenUnauthorizedCaller",
      "type": "error"
    },
    {
      "inputs": [
        {
          "internalType": "address",
          "name": "holder",
          "type": "address"
        },
        {
          "internalType": "address",
          "name": "spender",
          "type": "address"
        }
      ],
      "name": "ConfidentialFungibleTokenUnauthorizedSpender",
      "type": "error"
    },
    {
      "inputs": [
        {
          "internalType": "euint64",
          "name": "amount",
          "type": "bytes32"
        },
        {
          "internalType": "address",
          "name": "user",
          "type": "address"
        }
      ],
      "name": "ConfidentialFungibleTokenUnauthorizedUseOfEncryptedAmount",
      "type": "error"
    },
    {
      "inputs": [
        {
          "internalType": "address",
          "name": "holder",
          "type": "address"
        }
      ],
      "name": "ConfidentialFungibleTokenZeroBalance",
      "type": "error"
    },
    {
      "inputs": [],
      "name": "HandlesAlreadySavedForRequestID",
      "type": "error"
    },
    {
      "inputs": [],
      "name": "InvalidKMSSignatures",
      "type": "error"
    },
    {
      "inputs": [],
      "name": "NoHandleFoundForRequestID",
      "type": "error"
    },
    {
      "inputs": [
        {
          "internalType": "address",
          "name": "owner",
          "type": "address"
        }
      ],
      "name": "OwnableInvalidOwner",
      "type": "error"
    },
    {
      "inputs": [
        {
          "internalType": "address",
          "name": "account",
          "type": "address"
        }
      ],
      "name": "OwnableUnauthorizedAccount",
      "type": "error"
    },
    {
      "inputs": [],
      "name": "UnsupportedHandleType",
      "type": "error"
    },
    {
      "anonymous": false,
      "inputs": [
        {
          "indexed": true,
          "internalType": "euint64",
          "name": "encryptedAmount",
          "type": "bytes32"
        },
        {
          "indexed": false,
          "internalType": "uint64",
          "name": "amount",
          "type": "uint64"
        }
      ],
      "name": "AmountDisclosed",
      "type": "event"
    },
    {
      "anonymous": false,
      "inputs": [
        {
          "indexed": true,
          "internalType": "address",
          "name": "user",
          "type": "address"
        }
      ],
      "name": "ConfidentialDeposit",
      "type": "event"
    },
    {
      "anonymous": false,
      "inputs": [
        {
          "indexed": true,
          "internalType": "address",
          "name": "from",
          "type": "address"
        },
        {
          "indexed": true,
          "internalType": "address",
          "name": "to",
          "type": "address"
        },
        {
          "indexed": true,
          "internalType": "euint64",
          "name": "amount",
          "type": "bytes32"
        }
      ],
      "name": "ConfidentialTransfer",
      "type": "event"
    },
    {
      "anonymous": false,
      "inputs": [
        {
          "indexed": true,
          "internalType": "address",
          "name": "user",
          "type": "address"
        }
      ],
      "name": "ConfidentialUnwrap",
      "type": "event"
    },
    {
      "anonymous": false,
      "inputs": [
        {
          "indexed": true,
          "internalType": "address",
          "name": "user",
          "type": "address"
        }
      ],
      "name": "ConfidentialWithdrawal",
      "type": "event"
    },
    {
      "anonymous": false,
      "inputs": [
        {
          "indexed": true,
          "internalType": "address",
          "name": "user",
          "type": "address"
        }
      ],
      "name": "ConfidentialWrap",
      "type": "event"
    },
    {
      "anonymous": false,
      "inputs": [
        {
          "indexed": true,
          "internalType": "uint256",
          "name": "requestID",
          "type": "uint256"
        }
      ],
      "name": "DecryptionFulfilled",
      "type": "event"
    },
    {
      "anonymous": false,
      "inputs": [
        {
          "indexed": true,
          "internalType": "address",
          "name": "holder",
          "type": "address"
        },
        {
          "indexed": true,
          "internalType": "address",
          "name": "operator",
          "type": "address"
        },
        {
          "indexed": false,
          "internalType": "uint48",
          "name": "until",
          "type": "uint48"
        }
      ],
      "name": "OperatorSet",
      "type": "event"
    },
    {
      "anonymous": false,
      "inputs": [
        {
          "indexed": true,
          "internalType": "address",
          "name": "previousOwner",
          "type": "address"
        },
        {
          "indexed": true,
          "internalType": "address",
          "name": "newOwner",
          "type": "address"
        }
      ],
      "name": "OwnershipTransferred",
      "type": "event"
    },
    {
      "inputs": [
        {
          "internalType": "address",
          "name": "account",
          "type": "address"
        }
      ],
      "name": "confidentialBalanceOf",
      "outputs": [
        {
          "internalType": "euint64",
          "name": "",
          "type": "bytes32"
        }
      ],
      "stateMutability": "view",
      "type": "function"
    },
    {
      "inputs": [],
      "name": "confidentialTotalSupply",
      "outputs": [
        {
          "internalType": "euint64",
          "name": "",
          "type": "bytes32"
        }
      ],
      "stateMutability": "view",
      "type": "function"
    },
    {
      "inputs": [
        {
          "internalType": "address",
          "name": "to",
          "type": "address"
        },
        {
          "internalType": "externalEuint64",
          "name": "encryptedAmount",
          "type": "bytes32"
        },
        {
          "internalType": "bytes",
          "name": "inputProof",
          "type": "bytes"
        }
      ],
      "name": "confidentialTransfer",
      "outputs": [
        {
          "internalType": "euint64",
          "name": "",
          "type": "bytes32"
        }
      ],
      "stateMutability": "nonpayable",
      "type": "function"
    },
    {
      "inputs": [
        {
          "internalType": "address",
          "name": "to",
          "type": "address"
        },
        {
          "internalType": "euint64",
          "name": "amount",
          "type": "bytes32"
        }
      ],
      "name": "confidentialTransfer",
      "outputs": [
        {
          "internalType": "euint64",
          "name": "",
          "type": "bytes32"
        }
      ],
      "stateMutability": "nonpayable",
      "type": "function"
    },
    {
      "inputs": [
        {
          "internalType": "address",
          "name": "to",
          "type": "address"
        },
        {
          "internalType": "euint64",
          "name": "amount",
          "type": "bytes32"
        },
        {
          "internalType": "bytes",
          "name": "data",
          "type": "bytes"
        }
      ],
      "name": "confidentialTransferAndCall",
      "outputs": [
        {
          "internalType": "euint64",
          "name": "transferred",
          "type": "bytes32"
        }
      ],
      "stateMutability": "nonpayable",
      "type": "function"
    },
    {
      "inputs": [
        {
          "internalType": "address",
          "name": "to",
          "type": "address"
        },
        {
          "internalType": "externalEuint64",
          "name": "encryptedAmount",
          "type": "bytes32"
        },
        {
          "internalType": "bytes",
          "name": "inputProof",
          "type": "bytes"
        },
        {
          "internalType": "bytes",
          "name": "data",
          "type": "bytes"
        }
      ],
      "name": "confidentialTransferAndCall",
      "outputs": [
        {
          "internalType": "euint64",
          "name": "transferred",
          "type": "bytes32"
        }
      ],
      "stateMutability": "nonpayable",
      "type": "function"
    },
    {
      "inputs": [
        {
          "internalType": "address",
          "name": "from",
          "type": "address"
        },
        {
          "internalType": "address",
          "name": "to",
          "type": "address"
        },
        {
          "internalType": "externalEuint64",
          "name": "encryptedAmount",
          "type": "bytes32"
        },
        {
          "internalType": "bytes",
          "name": "inputProof",
          "type": "bytes"
        }
      ],
      "name": "confidentialTransferFrom",
      "outputs": [
        {
          "internalType": "euint64",
          "name": "transferred",
          "type": "bytes32"
        }
      ],
      "stateMutability": "nonpayable",
      "type": "function"
    },
    {
      "inputs": [
        {
          "internalType": "address",
          "name": "from",
          "type": "address"
        },
        {
          "internalType": "address",
          "name": "to",
          "type": "address"
        },
        {
          "internalType": "euint64",
          "name": "amount",
          "type": "bytes32"
        }
      ],
      "name": "confidentialTransferFrom",
      "outputs": [
        {
          "internalType": "euint64",
          "name": "transferred",
          "type": "bytes32"
        }
      ],
      "stateMutability": "nonpayable",
      "type": "function"
    },
    {
      "inputs": [
        {
          "internalType": "address",
          "name": "from",
          "type": "address"
        },
        {
          "internalType": "address",
          "name": "to",
          "type": "address"
        },
        {
          "internalType": "externalEuint64",
          "name": "encryptedAmount",
          "type": "bytes32"
        },
        {
          "internalType": "bytes",
          "name": "inputProof",
          "type": "bytes"
        },
        {
          "internalType": "bytes",
          "name": "data",
          "type": "bytes"
        }
      ],
      "name": "confidentialTransferFromAndCall",
      "outputs": [
        {
          "internalType": "euint64",
          "name": "transferred",
          "type": "bytes32"
        }
      ],
      "stateMutability": "nonpayable",
      "type": "function"
    },
    {
      "inputs": [
        {
          "internalType": "address",
          "name": "from",
          "type": "address"
        },
        {
          "internalType": "address",
          "name": "to",
          "type": "address"
        },
        {
          "internalType": "euint64",
          "name": "amount",
          "type": "bytes32"
        },
        {
          "internalType": "bytes",
          "name": "data",
          "type": "bytes"
        }
      ],
      "name": "confidentialTransferFromAndCall",
      "outputs": [
        {
          "internalType": "euint64",
          "name": "transferred",
          "type": "bytes32"
        }
      ],
      "stateMutability": "nonpayable",
      "type": "function"
    },
    {
      "inputs": [],
      "name": "decimals",
      "outputs": [
        {
          "internalType": "uint8",
          "name": "",
          "type": "uint8"
        }
      ],
      "stateMutability": "view",
      "type": "function"
    },
    {
      "inputs": [
        {
          "internalType": "euint64",
          "name": "encryptedAmount",
          "type": "bytes32"
        }
      ],
      "name": "discloseEncryptedAmount",
      "outputs": [],
      "stateMutability": "nonpayable",
      "type": "function"
    },
    {
      "inputs": [],
      "name": "emergencyWithdraw",
      "outputs": [],
      "stateMutability": "nonpayable",
      "type": "function"
    },
    {
      "inputs": [
        {
          "internalType": "uint256",
          "name": "requestId",
          "type": "uint256"
        },
        {
          "internalType": "uint64",
          "name": "amount",
          "type": "uint64"
        },
        {
          "internalType": "bytes[]",
          "name": "signatures",
          "type": "bytes[]"
        }
      ],
      "name": "finalizeDiscloseEncryptedAmount",
      "outputs": [],
      "stateMutability": "nonpayable",
      "type": "function"
    },
    {
      "inputs": [
        {
          "internalType": "address",
          "name": "user",
          "type": "address"
        }
      ],
      "name": "getEncryptedBalance",
      "outputs": [
        {
          "internalType": "euint64",
          "name": "",
          "type": "bytes32"
        }
      ],
      "stateMutability": "view",
      "type": "function"
    },
    {
      "inputs": [],
      "name": "getEncryptedTotalSupply",
      "outputs": [
        {
          "internalType": "euint64",
          "name": "",
          "type": "bytes32"
        }
      ],
      "stateMutability": "view",
      "type": "function"
    },
    {
      "inputs": [
        {
          "internalType": "address",
          "name": "holder",
          "type": "address"
        },
        {
          "internalType": "address",
          "name": "spender",
          "type": "address"
        }
      ],
      "name": "isOperator",
      "outputs": [
        {
          "internalType": "bool",
          "name": "",
          "type": "bool"
        }
      ],
      "stateMutability": "view",
      "type": "function"
    },
    {
      "inputs": [],
      "name": "name",
      "outputs": [
        {
          "internalType": "string",
          "name": "",
          "type": "string"
        }
      ],
      "stateMutability": "view",
      "type": "function"
    },
    {
      "inputs": [],
      "name": "owner",
      "outputs": [
        {
          "internalType": "address",
          "name": "",
          "type": "address"
        }
      ],
      "stateMutability": "view",
      "type": "function"
    },
    {
      "inputs": [],
      "name": "renounceOwnership",
      "outputs": [],
      "stateMutability": "nonpayable",
      "type": "function"
    },
    {
      "inputs": [
        {
          "internalType": "address",
          "name": "operator",
          "type": "address"
        },
        {
          "internalType": "uint48",
          "name": "until",
          "type": "uint48"
        }
      ],
      "name": "setOperator",
      "outputs": [],
      "stateMutability": "nonpayable",
      "type": "function"
    },
    {
      "inputs": [],
      "name": "symbol",
      "outputs": [
        {
          "internalType": "string",
          "name": "",
          "type": "string"
        }
      ],
      "stateMutability": "view",
      "type": "function"
    },
    {
      "inputs": [],
      "name": "tokenURI",
      "outputs": [
        {
          "internalType": "string",
          "name": "",
          "type": "string"
        }
      ],
      "stateMutability": "view",
      "type": "function"
    },
    {
      "inputs": [
        {
          "internalType": "address",
          "name": "newOwner",
          "type": "address"
        }
      ],
      "name": "transferOwnership",
      "outputs": [],
      "stateMutability": "nonpayable",
      "type": "function"
    },
    {
      "inputs": [],
      "name": "wrap",
      "outputs": [],
      "stateMutability": "payable",
      "type": "function"
    },
    {
      "stateMutability": "payable",
      "type": "receive"
    }
  ],
  "transactionHash": "0xce6be026d42d008a57f946da6d5fbf3e88f84a355936e5f50feaaca74fb10641",
  "args": [],
  "numDeployments": 1,
  "solcInputHash": "03064d48f085e9c954f548034a96cc8f",
  "bytecode": "0x608060405234801561000f575f5ffd5b50336040518060400160405280601a81526020017f436f6e666964656e7469616c2057726170706564204574686572000000000000815250604051806040016040528060058152602001640c6ae8aa8960db1b81525060405180606001604052806021815260200161281260219139600461008a84826101ce565b50600561009783826101ce565b5060066100a482826101ce565b5050506001600160a01b03821690506100d657604051631e4fbdf760e01b81525f600482015260240160405180910390fd5b6100df816100e5565b50610288565b600780546001600160a01b038381166001600160a01b0319831681179093556040519116919082907f8be0079c531659141344cd1fd0a4f28419497f9722a3daafe3b4186f6b6457e0905f90a35050565b634e487b7160e01b5f52604160045260245ffd5b600181811c9082168061015e57607f821691505b60208210810361017c57634e487b7160e01b5f52602260045260245ffd5b50919050565b601f8211156101c957805f5260205f20601f840160051c810160208510156101a75750805b601f840160051c820191505b818110156101c6575f81556001016101b3565b50505b505050565b81516001600160401b038111156101e7576101e7610136565b6101fb816101f5845461014a565b84610182565b6020601f82116001811461022d575f83156102165750848201515b5f19600385901b1c1916600184901b1784556101c6565b5f84815260208120601f198516915b8281101561025c578785015182556020948501946001909201910161023c565b508482101561027957868401515f19600387901b60f8161c191681555b50505050600190811b01905550565b61257d806102955f395ff3fe608060405260043610610191575f3560e01c80638da5cb5b116100dc578063d4ea066411610087578063de64211911610062578063de64211914610451578063e064b9bb14610470578063eb3155b51461048f578063f2fde38b146104ae575f5ffd5b8063d4ea06641461040a578063d4febb961461041e578063db2e21bc1461043d575f5ffd5b8063c535803c116100b7578063c535803c146103c4578063c7b8a75e146103e3578063d46eb11914610402575f5ffd5b80638da5cb5b1461035a57806395d89b4114610381578063b6363cf214610395575f5ffd5b8063402dc4e41161013c5780635bebed7e116101175780635bebed7e14610306578063715018a6146103255780637279e2641461033b575f5ffd5b8063402dc4e41461029f578063537d3c50146102d357806354095227146102f2575f5ffd5b8063344ff1011161016c578063344ff1011461023857806334c457431461026c5780633c130d901461028b575f5ffd5b806306fdde03146101c65780632fb74e62146101f0578063313ce5671461021d575f5ffd5b366101c25760405133907fa5e14a44e1a528a28e895b7dc9df2e48d8717f0515104e15fefc03ad7401f561905f90a2005b5f5ffd5b3480156101d1575f5ffd5b506101da6104cd565b6040516101e79190611dd9565b60405180910390f35b3480156101fb575f5ffd5b5061020f61020a366004611e44565b61055d565b6040519081526020016101e7565b348015610228575f5ffd5b50604051600681526020016101e7565b348015610243575f5ffd5b5061020f610252366004611e9a565b6001600160a01b03165f9081526020819052604090205490565b348015610277575f5ffd5b5061020f610286366004611eb3565b6105b0565b348015610296575f5ffd5b506101da610659565b3480156102aa575f5ffd5b5061020f6102b9366004611e9a565b6001600160a01b03165f9081526008602052604090205490565b3480156102de575f5ffd5b5061020f6102ed366004611e44565b610668565b3480156102fd575f5ffd5b5060035461020f565b348015610311575f5ffd5b5061020f610320366004611f4c565b6106ca565b348015610330575f5ffd5b5061033961071e565b005b348015610346575f5ffd5b50610339610355366004611fb9565b610731565b348015610365575f5ffd5b506007546040516001600160a01b0390911681526020016101e7565b34801561038c575f5ffd5b506101da6107be565b3480156103a0575f5ffd5b506103b46103af36600461210a565b6107cd565b60405190151581526020016101e7565b3480156103cf575f5ffd5b506103396103de366004612132565b61081f565b3480156103ee575f5ffd5b5061020f6103fd366004612149565b6108d5565b610339610978565b348015610415575f5ffd5b5060095461020f565b348015610429575f5ffd5b506103396104383660046121b3565b610a83565b348015610448575f5ffd5b50610339610a92565b34801561045c575f5ffd5b5061020f61046b3660046121f2565b610bca565b34801561047b575f5ffd5b5061020f61048a366004612149565b610c26565b34801561049a575f5ffd5b5061020f6104a936600461227b565b610cab565b3480156104b9575f5ffd5b506103396104c8366004611e9a565b610d4a565b6060600480546104dc906122b5565b80601f0160208091040260200160405190810160405280929190818152602001828054610508906122b5565b80156105535780601f1061052a57610100808354040283529160200191610553565b820191905f5260205f20905b81548152906001019060200180831161053657829003601f168201915b5050505050905090565b5f6105a733866105a28787878080601f0160208091040260200160405190810160405280939291908181526020018383808284375f92019190915250610d8792505050565b610d94565b95945050505050565b5f6105bb88336107cd565b883390916105f457604051631ae7729b60e11b81526001600160a01b039283166004820152911660248201526044015b60405180910390fd5b5050610641888861063a8989898080601f0160208091040260200160405190810160405280939291908181526020018383808284375f92019190915250610d8792505050565b8686610e14565b905061064d8133610e6b565b50979650505050505050565b6060600680546104dc906122b5565b5f6106738433610e7d565b843390916106a65760405163118f6e5360e31b815260048101929092526001600160a01b031660248201526044016105eb565b50506106b53386868686610e14565b90506106c18133610e6b565b50949350505050565b5f6106d58233610e7d565b823390916107085760405163118f6e5360e31b815260048101929092526001600160a01b031660248201526044016105eb565b5050610715338484610d94565b90505b92915050565b610726610e88565b61072f5f610eb5565b565b61073b8382610f1e565b5f83815260026020526040902054838161076b57604051630ab5f57d60e01b81526004016105eb91815260200190565b5060405167ffffffffffffffff8416815281907f83bbbc07896439e5d950a6cead04cbc676180af7a61cecf43f5296475057f5719060200160405180910390a25050505f90815260026020526040812055565b6060600580546104dc906122b5565b5f816001600160a01b0316836001600160a01b031614806107155750506001600160a01b039182165f90815260016020908152604080832093909416825291909152205465ffffffffffff1642111590565b6108298133610e7d565b801561083a575061083a8130610e7d565b8133909161086d5760405163118f6e5360e31b815260048101929092526001600160a01b031660248201526044016105eb565b50506040805160018082528183019092525f916020808301908036833701905050905081815f815181106108a3576108a36122ed565b60209081029190910101525f6108c082631c9e789960e21b610f85565b5f908152600260205260409020929092555050565b5f6108e08433610e7d565b843390916109135760405163118f6e5360e31b815260048101929092526001600160a01b031660248201526044016105eb565b505061091f86336107cd565b8633909161095357604051631ae7729b60e11b81526001600160a01b039283166004820152911660248201526044016105eb565b50506109628686868686610e14565b905061096e8133610e6b565b5095945050505050565b5f34116109d35760405162461bcd60e51b815260206004820152602360248201527f436f6e666964656e7469616c574554483a2043616e6e6f74207772617020302060448201526208aa8960eb1b60648201526084016105eb565b5f6109dd34610f91565b335f908152600860205260409020549091506109f99082610fa7565b335f90815260086020526040902055600954610a159082610fa7565b600955335f90815260086020526040902054610a3090610fd5565b50335f81815260086020526040902054610a4991610fe4565b50610a55600954610fd5565b5060405133907f9cb777e5cc5a3050cb652a50361cf4e165e4706a58b64a46634d986cd91d4de1905f90a250565b610a8e338383610fef565b5050565b610a9a610e88565b4780610af45760405162461bcd60e51b8152602060048201526024808201527f436f6e666964656e7469616c574554483a204e6f2045544820746f20776974686044820152636472617760e01b60648201526084016105eb565b5f610b076007546001600160a01b031690565b6001600160a01b0316826040515f6040518083038185875af1925050503d805f8114610b4e576040519150601f19603f3d011682016040523d82523d5f602084013e610b53565b606091505b5050905080610a8e5760405162461bcd60e51b815260206004820152602d60248201527f436f6e666964656e7469616c574554483a20456d657267656e6379207769746860448201527f64726177616c206661696c65640000000000000000000000000000000000000060648201526084016105eb565b5f610c0f338861063a8989898080601f0160208091040260200160405190810160405280939291908181526020018383808284375f92019190915250610d8792505050565b9050610c1b8133610e6b565b509695505050505050565b5f610c3186336107cd565b86339091610c6557604051631ae7729b60e11b81526001600160a01b039283166004820152911660248201526044016105eb565b505061096286866105a28787878080601f0160208091040260200160405190810160405280939291908181526020018383808284375f92019190915250610d8792505050565b5f610cb68233610e7d565b82339091610ce95760405163118f6e5360e31b815260048101929092526001600160a01b031660248201526044016105eb565b5050610cf584336107cd565b84339091610d2957604051631ae7729b60e11b81526001600160a01b039283166004820152911660248201526044016105eb565b5050610d36848484610d94565b9050610d428133610e6b565b509392505050565b610d52610e88565b6001600160a01b038116610d7b57604051631e4fbdf760e01b81525f60048201526024016105eb565b610d8481610eb5565b50565b5f61071583836005611066565b5f806001600160a01b038516610dc957604051631a9bbf8b60e11b81526001600160a01b0390911660048201526024016105eb565b505f6001600160a01b038416610dfe57604051636e41946d60e11b81526001600160a01b0390911660048201526024016105eb565b50610e0a848484611173565b90505b9392505050565b5f5f610e21878787610d94565b90505f610e323389898589896112d3565b90505f610e52888a610e4d85610e475f610f91565b886113d7565b611173565b9050610e5e83826113e3565b9998505050505050505050565b5f610e768383611411565b5090919050565b5f6107158383611485565b6007546001600160a01b0316331461072f5760405163118cdaa760e01b81523360048201526024016105eb565b600780546001600160a01b038381167fffffffffffffffffffffffff0000000000000000000000000000000000000000831681179093556040519116919082907f8be0079c531659141344cd1fd0a4f28419497f9722a3daafe3b4186f6b6457e0905f90a35050565b5f610f2883611511565b90505f610f3582846115e2565b905080610f555760405163cf6c44e960e01b815260040160405180910390fd5b60405184907f1af0453083661051f6e56e5c070792320652e612154bf9af8637bb1e7655b99d905f90a250505050565b5f61071583835f6116ea565b5f6107188267ffffffffffffffff166005611823565b5f82610fb957610fb65f610f91565b92505b81610fca57610fc75f610f91565b91505b61071583835f6118c5565b5f610fe0823061198b565b5090565b5f610e76838361198b565b6001600160a01b038381165f81815260016020908152604080832094871680845294825291829020805465ffffffffffff191665ffffffffffff871690811790915591519182527f921a218a75d18e8ec5704851e6b234a85725b21a2521ce889622c35dedc1fa12910160405180910390a3505050565b7fed8d60e34876f751cc8b014c560745351147d9de11b9347c854e881b128ea6015460405163196d0b9b60e01b81525f915f5160206125515f395f51905f52916001600160a01b039091169063196d0b9b906110cc908890339089908990600401612335565b6020604051808303815f875af11580156110e8573d5f5f3e3d5ffd5b505050506040513d601f19601f8201168201806040525081019061110c919061236b565b8154604051630f8e573b60e21b8152600481018390523360248201529193506001600160a01b031690633e395cec906044015f604051808303815f87803b158015611155575f5ffd5b505af1158015611167573d5f5f3e3d5ffd5b50505050509392505050565b5f80806001600160a01b0386166111a957611190600954856119d1565b909250905061119e81610fd5565b50600981905561122d565b6001600160a01b0386165f9081526008602052604090205486816111ec57604051636b8830d760e11b81526001600160a01b0390911660048201526024016105eb565b506111f78186611a1b565b909350915061120582610fd5565b506112108288610fe4565b50506001600160a01b0386165f9081526008602052604090208190555b611240828561123b5f610f91565b6113d7565b92506001600160a01b0385166112725761125c600954846113e3565b905061126781610fd5565b5060098190556112ca565b6001600160a01b0385165f9081526008602052604090205461129481856119d1565b90935091506112a282610fd5565b506112ad8287610fe4565b50506001600160a01b0385165f9081526008602052604090208190555b50509392505050565b5f6001600160a01b0385163b156113c0576040516346083bfd60e01b81526001600160a01b038616906346083bfd90611318908a908a90899089908990600401612382565b6020604051808303815f875af1925050508015611352575060408051601f3d908101601f1916820190925261134f9181019061236b565b60015b6113b9573d80801561137f576040519150601f19603f3d011682016040523d82523d5f602084013e611384565b606091505b5080515f036113b157604051636e41946d60e11b81526001600160a01b03871660048201526024016105eb565b805181602001fd5b90506113cd565b6113ca6001611a46565b90505b9695505050505050565b5f610e0a848484611a61565b5f826113f5576113f25f610f91565b92505b81611406576114035f610f91565b91505b61071583835f611aee565b5f5160206125515f395f51905f528054604051630f8e573b60e21b8152600481018590526001600160a01b03848116602483015290911690633e395cec906044015b5f604051808303815f87803b15801561146a575f5ffd5b505af115801561147c573d5f5f3e3d5ffd5b50505050505050565b5f805f5160206125515f395f51905f5280546040516382027b6d60e01b8152600481018790526001600160a01b0386811660248301529293509116906382027b6d90604401602060405180830381865afa1580156114e5573d5f5f3e3d5ffd5b505050506040513d601f19601f8201168201806040525081019061150991906123d7565b949350505050565b5f8181527f5ea69329017273582817d320489fbd94f775580e90c092699ca6f3d12fdf7d0260205260408120546060917f5ea69329017273582817d320489fbd94f775580e90c092699ca6f3d12fdf7d009190036115825760405163d66ca67560e01b815260040160405180910390fd5b5f838152600282016020908152604091829020805483518184028101840190945280845290918301828280156115d557602002820191905f5260205f20905b8154815260200190600101908083116115c1575b5050505050915050919050565b5f6024816115ef85611b78565b90505f8167ffffffffffffffff81111561160b5761160b611f74565b6040519080825280601f01601f191660200182016040528015611635576020820181803683370190505b509050818360208301377fed8d60e34876f751cc8b014c560745351147d9de11b9347c854e881b128ea60254604051632c027b1360e21b81525f5160206125515f395f51905f52916001600160a01b03169063b009ec4c9061169f908a9086908b90600401612430565b6020604051808303815f875af11580156116bb573d5f5f3e3d5ffd5b505050506040513d601f19601f820116820180604052508101906116df91906123d7565b979650505050505050565b7f5ea69329017273582817d320489fbd94f775580e90c092699ca6f3d12fdf7d01545f5160206125515f395f51905f528054604051637d6e912360e11b81527f5ea69329017273582817d320489fbd94f775580e90c092699ca6f3d12fdf7d0092916001600160a01b03169063fadd22469061176a9089906004016124ba565b5f604051808303815f87803b158015611781575f5ffd5b505af1158015611793573d5f5f3e3d5ffd5b50508354604051633263b83b60e01b81526001600160a01b039091169250633263b83b915086906117cc9087908b908b906004016124cc565b5f604051808303818588803b1580156117e3575f5ffd5b505af11580156117f5573d5f5f3e3d5ffd5b50505050506118048387611c25565b600182018054905f61181583612511565b919050555050509392505050565b7fed8d60e34876f751cc8b014c560745351147d9de11b9347c854e881b128ea60154604051639cd07acb60e01b81525f915f5160206125515f395f51905f52916001600160a01b0390911690639cd07acb906118859087908790600401612529565b6020604051808303815f875af11580156118a1573d5f5f3e3d5ffd5b505050506040513d601f19601f82011682018060405250810190611509919061236b565b5f5f82156118d85750600160f81b6118db565b505f5b7fed8d60e34876f751cc8b014c560745351147d9de11b9347c854e881b128ea6015460405163022f65e760e31b815260048101879052602481018690526001600160f81b0319831660448201525f5160206125515f395f51905f52916001600160a01b03169063117b2f38906064015b6020604051808303815f875af1158015611967573d5f5f3e3d5ffd5b505050506040513d601f19601f820116820180604052508101906113cd919061236b565b5f5160206125515f395f51905f528054604051635ca4b5b160e11b8152600481018590526001600160a01b0384811660248301529091169063b9496b6290604401611453565b5f80836119ec576119e26001611a46565b9150829050611a14565b5f6119f78585610fa7565b9050611a038186611cb8565b9250611a108382876113d7565b9150505b9250929050565b5f5f611a278484611cb8565b9150611a3d82611a3786866113e3565b866113d7565b90509250929050565b5f61071882611a55575f611a58565b60015b60ff165f611823565b5f805f5160206125515f395f51905f526001810154604051637702dcff60e01b81526004810188905260248101879052604481018690529192506001600160a01b031690637702dcff906064016020604051808303815f875af1158015611aca573d5f5f3e3d5ffd5b505050506040513d601f19601f820116820180604052508101906105a7919061236b565b5f5f8215611b015750600160f81b611b04565b505f5b7fed8d60e34876f751cc8b014c560745351147d9de11b9347c854e881b128ea601546040516303056db360e31b815260048101879052602481018690526001600160f81b0319831660448201525f5160206125515f395f51905f52916001600160a01b03169063182b6d989060640161194b565b80515f9081805b82811015611c19575f858281518110611b9a57611b9a6122ed565b6020026020010151601e60208110611bb457611bb46122ed565b1a6053811115611bc657611bc6612301565b90506009816053811115611bdc57611bdc612301565b60ff161015611bf757611bf060208461253d565b9250611c10565b60405163ce54a8d160e01b815260040160405180910390fd5b50600101611b7f565b5061150960208261253d565b5f8281527f5ea69329017273582817d320489fbd94f775580e90c092699ca6f3d12fdf7d0260205260409020547f5ea69329017273582817d320489fbd94f775580e90c092699ca6f3d12fdf7d009015611c9257604051633f06d22b60e01b815260040160405180910390fd5b5f83815260028201602090815260409091208351611cb292850190611d57565b50505050565b5f82611cca57611cc75f610f91565b92505b81611cdb57611cd85f610f91565b91505b61071583835f805f7fed8d60e34876f751cc8b014c560745351147d9de11b9347c854e881b128ea60154604051631391547f60e01b815260048101879052602481018690526001600160f81b0319831660448201525f5160206125515f395f51905f52916001600160a01b031690631391547f9060640161194b565b828054828255905f5260205f20908101928215611d90579160200282015b82811115611d90578251825591602001919060010190611d75565b50610fe09291505b80821115610fe0575f8155600101611d98565b5f81518084528060208401602086015e5f602082860101526020601f19601f83011685010191505092915050565b602081525f6107156020830184611dab565b80356001600160a01b0381168114611e01575f5ffd5b919050565b5f5f83601f840112611e16575f5ffd5b50813567ffffffffffffffff811115611e2d575f5ffd5b602083019150836020828501011115611a14575f5ffd5b5f5f5f5f60608587031215611e57575f5ffd5b611e6085611deb565b935060208501359250604085013567ffffffffffffffff811115611e82575f5ffd5b611e8e87828801611e06565b95989497509550505050565b5f60208284031215611eaa575f5ffd5b61071582611deb565b5f5f5f5f5f5f5f60a0888a031215611ec9575f5ffd5b611ed288611deb565b9650611ee060208901611deb565b955060408801359450606088013567ffffffffffffffff811115611f02575f5ffd5b611f0e8a828b01611e06565b909550935050608088013567ffffffffffffffff811115611f2d575f5ffd5b611f398a828b01611e06565b989b979a50959850939692959293505050565b5f5f60408385031215611f5d575f5ffd5b611f6683611deb565b946020939093013593505050565b634e487b7160e01b5f52604160045260245ffd5b604051601f8201601f1916810167ffffffffffffffff81118282101715611fb157611fb1611f74565b604052919050565b5f5f5f60608486031215611fcb575f5ffd5b83359250602084013567ffffffffffffffff81168114611fe9575f5ffd5b9150604084013567ffffffffffffffff811115612004575f5ffd5b8401601f81018613612014575f5ffd5b803567ffffffffffffffff81111561202e5761202e611f74565b8060051b61203e60208201611f88565b91825260208184018101929081019089841115612059575f5ffd5b6020850192505b838310156120fb57823567ffffffffffffffff81111561207e575f5ffd5b8501603f81018b1361208e575f5ffd5b602081013567ffffffffffffffff8111156120ab576120ab611f74565b6120be601f8201601f1916602001611f88565b8181526040838301018d10156120d2575f5ffd5b816040840160208301375f60208383010152808552505050602082019150602083019250612060565b80955050505050509250925092565b5f5f6040838503121561211b575f5ffd5b61212483611deb565b9150611a3d60208401611deb565b5f60208284031215612142575f5ffd5b5035919050565b5f5f5f5f5f6080868803121561215d575f5ffd5b61216686611deb565b945061217460208701611deb565b935060408601359250606086013567ffffffffffffffff811115612196575f5ffd5b6121a288828901611e06565b969995985093965092949392505050565b5f5f604083850312156121c4575f5ffd5b6121cd83611deb565b9150602083013565ffffffffffff811681146121e7575f5ffd5b809150509250929050565b5f5f5f5f5f5f60808789031215612207575f5ffd5b61221087611deb565b955060208701359450604087013567ffffffffffffffff811115612232575f5ffd5b61223e89828a01611e06565b909550935050606087013567ffffffffffffffff81111561225d575f5ffd5b61226989828a01611e06565b979a9699509497509295939492505050565b5f5f5f6060848603121561228d575f5ffd5b61229684611deb565b92506122a460208501611deb565b929592945050506040919091013590565b600181811c908216806122c957607f821691505b6020821081036122e757634e487b7160e01b5f52602260045260245ffd5b50919050565b634e487b7160e01b5f52603260045260245ffd5b634e487b7160e01b5f52602160045260245ffd5b6054811061233157634e487b7160e01b5f52602160045260245ffd5b9052565b8481526001600160a01b0384166020820152608060408201525f61235c6080830185611dab565b90506105a76060830184612315565b5f6020828403121561237b575f5ffd5b5051919050565b6001600160a01b03861681526001600160a01b038516602082015283604082015260806060820152816080820152818360a08301375f81830160a090810191909152601f909201601f19160101949350505050565b5f602082840312156123e7575f5ffd5b81518015158114610e0d575f5ffd5b5f8151808452602084019350602083015f5b82811015612426578151865260209586019590910190600101612408565b5093949350505050565b606081525f61244260608301866123f6565b82810360208401526124548186611dab565b9050828103604084015280845180835260208301915060208160051b840101602087015f5b838110156124ab57601f19868403018552612495838351611dab565b6020958601959093509190910190600101612479565b50909998505050505050505050565b602081525f61071560208301846123f6565b838152606060208201525f6124e460608301856123f6565b905063ffffffff60e01b83166040830152949350505050565b634e487b7160e01b5f52601160045260245ffd5b5f60018201612522576125226124fd565b5060010190565b82815260408101610e0d6020830184612315565b80820180821115610718576107186124fd56feed8d60e34876f751cc8b014c560745351147d9de11b9347c854e881b128ea600a164736f6c634300081b000a68747470733a2f2f6170692e6578616d706c652e636f6d2f6d657461646174612f",
  "devdoc": {
    "details": "This contract allows users to wrap ETH into confidential WETH tokens",
    "errors": {
      "ConfidentialFungibleTokenInvalidGatewayRequest(uint256)": [
        {
          "details": "The given gateway request ID `requestId` is invalid."
        }
      ],
      "ConfidentialFungibleTokenInvalidReceiver(address)": [
        {
          "details": "The given receiver `receiver` is invalid for transfers."
        }
      ],
      "ConfidentialFungibleTokenInvalidSender(address)": [
        {
          "details": "The given sender `sender` is invalid for transfers."
        }
      ],
      "ConfidentialFungibleTokenUnauthorizedCaller(address)": [
        {
          "details": "The given caller `caller` is not authorized for the current operation."
        }
      ],
      "ConfidentialFungibleTokenUnauthorizedSpender(address,address)": [
        {
          "details": "The given holder `holder` is not authorized to spend on behalf of `spender`."
        }
      ],
      "ConfidentialFungibleTokenUnauthorizedUseOfEncryptedAmount(bytes32,address)": [
        {
          "details": "The caller `user` does not have access to the encrypted amount `amount`. NOTE: Try using the equivalent transfer function with an input proof."
        }
      ],
      "ConfidentialFungibleTokenZeroBalance(address)": [
        {
          "details": "The holder `holder` is trying to send tokens but has a balance of 0."
        }
      ],
      "OwnableInvalidOwner(address)": [
        {
          "details": "The owner is not a valid owner account. (eg. `address(0)`)"
        }
      ],
      "OwnableUnauthorizedAccount(address)": [
        {
          "details": "The caller account is not authorized to perform an operation."
        }
      ]
    },
    "events": {
      "AmountDisclosed(bytes32,uint64)": {
        "details": "Emitted when an encrypted amount is disclosed. Accounts with access to the encrypted amount `encryptedAmount` that is also accessible to this contract should be able to disclose the amount. This functionality is implementation specific."
      },
      "ConfidentialTransfer(address,address,bytes32)": {
        "details": "Emitted when a confidential transfer is made from `from` to `to` of encrypted amount `amount`."
      },
      "OperatorSet(address,address,uint48)": {
        "details": "Emitted when the expiration timestamp for an operator `operator` is updated for a given `holder`. The operator may move any amount of tokens on behalf of the holder until the timestamp `until`."
      }
    },
    "kind": "dev",
    "methods": {
      "confidentialBalanceOf(address)": {
        "details": "Returns the confidential balance of the account `account`."
      },
      "confidentialTotalSupply()": {
        "details": "Returns the confidential total supply of the token."
      },
      "confidentialTransfer(address,bytes32)": {
        "details": "Similar to {confidentialTransfer-address-externalEuint64-bytes} but without an input proof. The caller *must* already be allowed by ACL for the given `amount`."
      },
      "confidentialTransfer(address,bytes32,bytes)": {
        "details": "Transfers the encrypted amount `encryptedAmount` to `to` with the given input proof `inputProof`. Returns the encrypted amount that was actually transferred."
      },
      "confidentialTransferAndCall(address,bytes32,bytes)": {
        "details": "Similar to {confidentialTransfer-address-euint64} but with a callback to `to` after the transfer."
      },
      "confidentialTransferAndCall(address,bytes32,bytes,bytes)": {
        "details": "Similar to {confidentialTransfer-address-externalEuint64-bytes} but with a callback to `to` after the transfer. The callback is made to the {IConfidentialFungibleTokenReceiver-onConfidentialTransferReceived} function on the to address with the actual transferred amount (may differ from the given `encryptedAmount`) and the given data `data`."
      },
      "confidentialTransferFrom(address,address,bytes32)": {
        "details": "Similar to {confidentialTransferFrom-address-address-externalEuint64-bytes} but without an input proof. The caller *must* be already allowed by ACL for the given `amount`."
      },
      "confidentialTransferFrom(address,address,bytes32,bytes)": {
        "details": "Transfers the encrypted amount `encryptedAmount` from `from` to `to` with the given input proof `inputProof`. `msg.sender` must be either `from` or an operator for `from`. Returns the encrypted amount that was actually transferred."
      },
      "confidentialTransferFromAndCall(address,address,bytes32,bytes)": {
        "details": "Similar to {confidentialTransferFrom-address-address-euint64} but with a callback to `to` after the transfer."
      },
      "confidentialTransferFromAndCall(address,address,bytes32,bytes,bytes)": {
        "details": "Similar to {confidentialTransferFrom-address-address-externalEuint64-bytes} but with a callback to `to` after the transfer."
      },
      "decimals()": {
        "details": "Returns the number of decimals of the token. Recommended to be 6."
      },
      "discloseEncryptedAmount(bytes32)": {
        "details": "Discloses an encrypted amount `encryptedAmount` publicly via an {IConfidentialFungibleToken-AmountDisclosed} event. The caller and this contract must be authorized to use the encrypted amount on the ACL. NOTE: This is an asynchronous operation where the actual decryption happens off-chain and {finalizeDiscloseEncryptedAmount} is called with the result."
      },
      "emergencyWithdraw()": {
        "details": "This function should only be used in emergency situations"
      },
      "finalizeDiscloseEncryptedAmount(uint256,uint64,bytes[])": {
        "details": "Finalizes a disclose encrypted amount request."
      },
      "getEncryptedBalance(address)": {
        "params": {
          "user": "The user address"
        },
        "returns": {
          "_0": "The encrypted balance"
        }
      },
      "getEncryptedTotalSupply()": {
        "returns": {
          "_0": "The encrypted total supply"
        }
      },
      "isOperator(address,address)": {
        "details": "Returns true if `spender` is currently an operator for `holder`."
      },
      "name()": {
        "details": "Returns the name of the token."
      },
      "owner()": {
        "details": "Returns the address of the current owner."
      },
      "renounceOwnership()": {
        "details": "Leaves the contract without owner. It will not be possible to call `onlyOwner` functions. Can only be called by the current owner. NOTE: Renouncing ownership will leave the contract without an owner, thereby disabling any functionality that is only available to the owner."
      },
      "setOperator(address,uint48)": {
        "details": "Sets `operator` as an operator for `holder` until the timestamp `until`. NOTE: An operator may transfer any amount of tokens on behalf of a holder while approved."
      },
      "symbol()": {
        "details": "Returns the symbol of the token."
      },
      "tokenURI()": {
        "details": "Returns the token URI."
      },
      "transferOwnership(address)": {
        "details": "Transfers ownership of the contract to a new account (`newOwner`). Can only be called by the current owner."
      },
      "wrap()": {
        "details": "Users send ETH and receive encrypted cWETH tokensCONFIDENTIAL: No plaintext amounts are exposed"
      }
    },
    "title": "Confidential WETH (cWETH)",
    "version": 1
  },
  "userdoc": {
    "errors": {
      "HandlesAlreadySavedForRequestID()": [
        {
          "notice": "Returned if some handles were already saved for corresponding ID."
        }
      ],
      "InvalidKMSSignatures()": [
        {
          "notice": "Returned if the returned KMS signatures are not valid."
        }
      ],
      "NoHandleFoundForRequestID()": [
        {
          "notice": "Returned if there was not handle found for the requested ID."
        }
      ],
      "UnsupportedHandleType()": [
        {
          "notice": "Returned if the requested handle to be decrypted is not of a supported type."
        }
      ]
    },
    "events": {
      "DecryptionFulfilled(uint256)": {
        "notice": "This event is emitted when requested decryption has been fulfilled."
      }
    },
    "kind": "user",
    "methods": {
      "emergencyWithdraw()": {
        "notice": "Emergency function to withdraw ETH (only owner)"
      },
      "getEncryptedBalance(address)": {
        "notice": "Get encrypted balance of a user"
      },
      "getEncryptedTotalSupply()": {
        "notice": "Get encrypted total supply"
      },
      "wrap()": {
        "notice": "Wrap ETH into confidential WETH"
      }
    },
    "notice": "ERC7984 implementation for confidential WETH with wrap/unwrap functionality",
    "version": 1
  },
  "storageLayout": {
    "storage": [
      {
        "astId": 39252,
        "contract": "contracts/ConfidentialWETH.sol:ConfidentialWETH",
        "label": "_balances",
        "offset": 0,
        "slot": "0",
        "type": "t_mapping(t_address,t_userDefinedValueType(euint64)42256)"
      },
      {
        "astId": 39258,
        "contract": "contracts/ConfidentialWETH.sol:ConfidentialWETH",
        "label": "_operators",
        "offset": 0,
        "slot": "1",
        "type": "t_mapping(t_address,t_mapping(t_address,t_uint48))"
      },
      {
        "astId": 39263,
        "contract": "contracts/ConfidentialWETH.sol:ConfidentialWETH",
        "label": "_requestHandles",
        "offset": 0,
        "slot": "2",
        "type": "t_mapping(t_uint256,t_userDefinedValueType(euint64)42256)"
      },
      {
        "astId": 39266,
        "contract": "contracts/ConfidentialWETH.sol:ConfidentialWETH",
        "label": "_totalSupply",
        "offset": 0,
        "slot": "3",
        "type": "t_userDefinedValueType(euint64)42256"
      },
      {
        "astId": 39268,
        "contract": "contracts/ConfidentialWETH.sol:ConfidentialWETH",
        "label": "_name",
        "offset": 0,
        "slot": "4",
        "type": "t_string_storage"
      },
      {
        "astId": 39270,
        "contract": "contracts/ConfidentialWETH.sol:ConfidentialWETH",
        "label": "_symbol",
        "offset": 0,
        "slot": "5",
        "type": "t_string_storage"
      },
      {
        "astId": 39272,
        "contract": "contracts/ConfidentialWETH.sol:ConfidentialWETH",
        "label": "_tokenURI",
        "offset": 0,
        "slot": "6",
        "type": "t_string_storage"
      },
      {
        "astId": 40532,
        "contract": "contracts/ConfidentialWETH.sol:ConfidentialWETH",
        "label": "_owner",
        "offset": 0,
        "slot": "7",
        "type": "t_address"
      },
      {
        "astId": 41894,
        "contract": "contracts/ConfidentialWETH.sol:ConfidentialWETH",
        "label": "_encryptedBalances",
        "offset": 0,
        "slot": "8",
        "type": "t_mapping(t_address,t_userDefinedValueType(euint64)42256)"
      },
      {
        "astId": 41897,
        "contract": "contracts/ConfidentialWETH.sol:ConfidentialWETH",
        "label": "_totalSupply",
        "offset": 0,
        "slot": "9",
        "type": "t_userDefinedValueType(euint64)42256"
      }
    ],
    "types": {
      "t_address": {
        "encoding": "inplace",
        "label": "address",
        "numberOfBytes": "20"
      },
      "t_mapping(t_address,t_mapping(t_address,t_uint48))": {
        "encoding": "mapping",
        "key": "t_address",
        "label": "mapping(address => mapping(address => uint48))",
        "numberOfBytes": "32",
        "value": "t_mapping(t_address,t_uint48)"
      },
      "t_mapping(t_address,t_uint48)": {
        "encoding": "mapping",
        "key": "t_address",
        "label": "mapping(address => uint48)",
        "numberOfBytes": "32",
        "value": "t_uint48"
      },
      "t_mapping(t_address,t_userDefinedValueType(euint64)42256)": {
        "encoding": "mapping",
        "key": "t_address",
        "label": "mapping(address => euint64)",
        "numberOfBytes": "32",
        "value": "t_userDefinedValueType(euint64)42256"
      },
      "t_mapping(t_uint256,t_userDefinedValueType(euint64)42256)": {
        "encoding": "mapping",
        "key": "t_uint256",
        "label": "mapping(uint256 => euint64)",
        "numberOfBytes": "32",
        "value": "t_userDefinedValueType(euint64)42256"
      },
      "t_string_storage": {
        "encoding": "bytes",
        "label": "string",
        "numberOfBytes": "32"
      },
      "t_uint256": {
        "encoding": "inplace",
        "label": "uint256",
        "numberOfBytes": "32"
      },
      "t_uint48": {
        "encoding": "inplace",
        "label": "uint48",
        "numberOfBytes": "6"
      },
      "t_userDefinedValueType(euint64)42256": {
        "encoding": "inplace",
        "label": "euint64",
        "numberOfBytes": "32"
      }
    }
  }
}